{
  "_format": "hh-sol-artifact-1",
  "contractName": "MyNFT",
  "sourceName": "contracts/MyNFT.sol",
  "abi": [
    {
      "inputs": [
        {
          "internalType": "address",
          "name": "sender",
          "type": "address"
        },
        {
          "internalType": "uint256",
          "name": "tokenId",
          "type": "uint256"
        },
        {
          "internalType": "address",
          "name": "owner",
          "type": "address"
        }
      ],
      "name": "ERC721IncorrectOwner",
      "type": "error"
    },
    {
      "inputs": [
        {
          "internalType": "address",
          "name": "operator",
          "type": "address"
        },
        {
          "internalType": "uint256",
          "name": "tokenId",
          "type": "uint256"
        }
      ],
      "name": "ERC721InsufficientApproval",
      "type": "error"
    },
    {
      "inputs": [
        {
          "internalType": "address",
          "name": "approver",
          "type": "address"
        }
      ],
      "name": "ERC721InvalidApprover",
      "type": "error"
    },
    {
      "inputs": [
        {
          "internalType": "address",
          "name": "operator",
          "type": "address"
        }
      ],
      "name": "ERC721InvalidOperator",
      "type": "error"
    },
    {
      "inputs": [
        {
          "internalType": "address",
          "name": "owner",
          "type": "address"
        }
      ],
      "name": "ERC721InvalidOwner",
      "type": "error"
    },
    {
      "inputs": [
        {
          "internalType": "address",
          "name": "receiver",
          "type": "address"
        }
      ],
      "name": "ERC721InvalidReceiver",
      "type": "error"
    },
    {
      "inputs": [
        {
          "internalType": "address",
          "name": "sender",
          "type": "address"
        }
      ],
      "name": "ERC721InvalidSender",
      "type": "error"
    },
    {
      "inputs": [
        {
          "internalType": "uint256",
          "name": "tokenId",
          "type": "uint256"
        }
      ],
      "name": "ERC721NonexistentToken",
      "type": "error"
    },
    {
      "inputs": [],
      "name": "InvalidInitialization",
      "type": "error"
    },
    {
      "inputs": [],
      "name": "NotInitializing",
      "type": "error"
    },
    {
      "inputs": [
        {
          "internalType": "address",
          "name": "owner",
          "type": "address"
        }
      ],
      "name": "OwnableInvalidOwner",
      "type": "error"
    },
    {
      "inputs": [
        {
          "internalType": "address",
          "name": "account",
          "type": "address"
        }
      ],
      "name": "OwnableUnauthorizedAccount",
      "type": "error"
    },
    {
      "anonymous": false,
      "inputs": [
        {
          "indexed": true,
          "internalType": "address",
          "name": "owner",
          "type": "address"
        },
        {
          "indexed": true,
          "internalType": "address",
          "name": "approved",
          "type": "address"
        },
        {
          "indexed": true,
          "internalType": "uint256",
          "name": "tokenId",
          "type": "uint256"
        }
      ],
      "name": "Approval",
      "type": "event"
    },
    {
      "anonymous": false,
      "inputs": [
        {
          "indexed": true,
          "internalType": "address",
          "name": "owner",
          "type": "address"
        },
        {
          "indexed": true,
          "internalType": "address",
          "name": "operator",
          "type": "address"
        },
        {
          "indexed": false,
          "internalType": "bool",
          "name": "approved",
          "type": "bool"
        }
      ],
      "name": "ApprovalForAll",
      "type": "event"
    },
    {
      "anonymous": false,
      "inputs": [
        {
          "indexed": false,
          "internalType": "uint256",
          "name": "_fromTokenId",
          "type": "uint256"
        },
        {
          "indexed": false,
          "internalType": "uint256",
          "name": "_toTokenId",
          "type": "uint256"
        }
      ],
      "name": "BatchMetadataUpdate",
      "type": "event"
    },
    {
      "anonymous": false,
      "inputs": [
        {
          "indexed": false,
          "internalType": "uint64",
          "name": "version",
          "type": "uint64"
        }
      ],
      "name": "Initialized",
      "type": "event"
    },
    {
      "anonymous": false,
      "inputs": [
        {
          "indexed": false,
          "internalType": "uint256",
          "name": "_tokenId",
          "type": "uint256"
        }
      ],
      "name": "MetadataUpdate",
      "type": "event"
    },
    {
      "anonymous": false,
      "inputs": [
        {
          "indexed": true,
          "internalType": "address",
          "name": "previousOwner",
          "type": "address"
        },
        {
          "indexed": true,
          "internalType": "address",
          "name": "newOwner",
          "type": "address"
        }
      ],
      "name": "OwnershipTransferred",
      "type": "event"
    },
    {
      "anonymous": false,
      "inputs": [
        {
          "indexed": true,
          "internalType": "address",
          "name": "from",
          "type": "address"
        },
        {
          "indexed": true,
          "internalType": "address",
          "name": "to",
          "type": "address"
        },
        {
          "indexed": true,
          "internalType": "uint256",
          "name": "tokenId",
          "type": "uint256"
        }
      ],
      "name": "Transfer",
      "type": "event"
    },
    {
      "inputs": [
        {
          "internalType": "address",
          "name": "to",
          "type": "address"
        },
        {
          "internalType": "uint256",
          "name": "tokenId",
          "type": "uint256"
        }
      ],
      "name": "approve",
      "outputs": [],
      "stateMutability": "nonpayable",
      "type": "function"
    },
    {
      "inputs": [
        {
          "internalType": "address",
          "name": "owner",
          "type": "address"
        }
      ],
      "name": "balanceOf",
      "outputs": [
        {
          "internalType": "uint256",
          "name": "",
          "type": "uint256"
        }
      ],
      "stateMutability": "view",
      "type": "function"
    },
    {
      "inputs": [
        {
          "internalType": "uint256",
          "name": "tokenId",
          "type": "uint256"
        }
      ],
      "name": "getApproved",
      "outputs": [
        {
          "internalType": "address",
          "name": "",
          "type": "address"
        }
      ],
      "stateMutability": "view",
      "type": "function"
    },
    {
      "inputs": [],
      "name": "initialize",
      "outputs": [],
      "stateMutability": "nonpayable",
      "type": "function"
    },
    {
      "inputs": [
        {
          "internalType": "address",
          "name": "owner",
          "type": "address"
        },
        {
          "internalType": "address",
          "name": "operator",
          "type": "address"
        }
      ],
      "name": "isApprovedForAll",
      "outputs": [
        {
          "internalType": "bool",
          "name": "",
          "type": "bool"
        }
      ],
      "stateMutability": "view",
      "type": "function"
    },
    {
      "inputs": [
        {
          "internalType": "address",
          "name": "recipient",
          "type": "address"
        },
        {
          "internalType": "string",
          "name": "tokenURI",
          "type": "string"
        }
      ],
      "name": "mintNFT",
      "outputs": [
        {
          "internalType": "uint256",
          "name": "",
          "type": "uint256"
        }
      ],
      "stateMutability": "nonpayable",
      "type": "function"
    },
    {
      "inputs": [],
      "name": "name",
      "outputs": [
        {
          "internalType": "string",
          "name": "",
          "type": "string"
        }
      ],
      "stateMutability": "view",
      "type": "function"
    },
    {
      "inputs": [],
      "name": "owner",
      "outputs": [
        {
          "internalType": "address",
          "name": "",
          "type": "address"
        }
      ],
      "stateMutability": "view",
      "type": "function"
    },
    {
      "inputs": [
        {
          "internalType": "uint256",
          "name": "tokenId",
          "type": "uint256"
        }
      ],
      "name": "ownerOf",
      "outputs": [
        {
          "internalType": "address",
          "name": "",
          "type": "address"
        }
      ],
      "stateMutability": "view",
      "type": "function"
    },
    {
      "inputs": [],
      "name": "renounceOwnership",
      "outputs": [],
      "stateMutability": "nonpayable",
      "type": "function"
    },
    {
      "inputs": [
        {
          "internalType": "address",
          "name": "from",
          "type": "address"
        },
        {
          "internalType": "address",
          "name": "to",
          "type": "address"
        },
        {
          "internalType": "uint256",
          "name": "tokenId",
          "type": "uint256"
        }
      ],
      "name": "safeTransferFrom",
      "outputs": [],
      "stateMutability": "nonpayable",
      "type": "function"
    },
    {
      "inputs": [
        {
          "internalType": "address",
          "name": "from",
          "type": "address"
        },
        {
          "internalType": "address",
          "name": "to",
          "type": "address"
        },
        {
          "internalType": "uint256",
          "name": "tokenId",
          "type": "uint256"
        },
        {
          "internalType": "bytes",
          "name": "data",
          "type": "bytes"
        }
      ],
      "name": "safeTransferFrom",
      "outputs": [],
      "stateMutability": "nonpayable",
      "type": "function"
    },
    {
      "inputs": [
        {
          "internalType": "address",
          "name": "operator",
          "type": "address"
        },
        {
          "internalType": "bool",
          "name": "approved",
          "type": "bool"
        }
      ],
      "name": "setApprovalForAll",
      "outputs": [],
      "stateMutability": "nonpayable",
      "type": "function"
    },
    {
      "inputs": [
        {
          "internalType": "bytes4",
          "name": "interfaceId",
          "type": "bytes4"
        }
      ],
      "name": "supportsInterface",
      "outputs": [
        {
          "internalType": "bool",
          "name": "",
          "type": "bool"
        }
      ],
      "stateMutability": "view",
      "type": "function"
    },
    {
      "inputs": [],
      "name": "symbol",
      "outputs": [
        {
          "internalType": "string",
          "name": "",
          "type": "string"
        }
      ],
      "stateMutability": "view",
      "type": "function"
    },
    {
      "inputs": [
        {
          "internalType": "uint256",
          "name": "tokenId",
          "type": "uint256"
        }
      ],
      "name": "tokenURI",
      "outputs": [
        {
          "internalType": "string",
          "name": "",
          "type": "string"
        }
      ],
      "stateMutability": "view",
      "type": "function"
    },
    {
      "inputs": [
        {
          "internalType": "address",
          "name": "from",
          "type": "address"
        },
        {
          "internalType": "address",
          "name": "to",
          "type": "address"
        },
        {
          "internalType": "uint256",
          "name": "tokenId",
          "type": "uint256"
        }
      ],
      "name": "transferFrom",
      "outputs": [],
      "stateMutability": "nonpayable",
      "type": "function"
    },
    {
      "inputs": [
        {
          "internalType": "address",
          "name": "newOwner",
          "type": "address"
        }
      ],
      "name": "transferOwnership",
      "outputs": [],
      "stateMutability": "nonpayable",
      "type": "function"
    },
    {
      "inputs": [],
      "name": "version",
      "outputs": [
        {
          "internalType": "string",
          "name": "",
          "type": "string"
        }
      ],
      "stateMutability": "pure",
      "type": "function"
    }
  ],
  "bytecode": "0x6080604052348015600f57600080fd5b50612bda8061001f6000396000f3fe608060405234801561001057600080fd5b50600436106101215760003560e01c8063715018a6116100ad578063b88d4fde11610071578063b88d4fde146102e2578063c87b56dd146102fe578063e985e9c51461032e578063eacabe141461035e578063f2fde38b1461038e57610121565b8063715018a6146102765780638129fc1c146102805780638da5cb5b1461028a57806395d89b41146102a8578063a22cb465146102c657610121565b806323b872dd116100f457806323b872dd146101c057806342842e0e146101dc57806354fd4d50146101f85780636352211e1461021657806370a082311461024657610121565b806301ffc9a71461012657806306fdde0314610156578063081812fc14610174578063095ea7b3146101a4575b600080fd5b610140600480360381019061013b9190611fc8565b6103aa565b60405161014d9190612010565b60405180910390f35b61015e61040b565b60405161016b91906120bb565b60405180910390f35b61018e60048036038101906101899190612113565b6104ac565b60405161019b9190612181565b60405180910390f35b6101be60048036038101906101b991906121c8565b6104c8565b005b6101da60048036038101906101d59190612208565b6104de565b005b6101f660048036038101906101f19190612208565b6105e0565b005b610200610600565b60405161020d91906120bb565b60405180910390f35b610230600480360381019061022b9190612113565b61063d565b60405161023d9190612181565b60405180910390f35b610260600480360381019061025b919061225b565b61064f565b60405161026d9190612297565b60405180910390f35b61027e610718565b005b61028861072c565b005b61029261092e565b60405161029f9190612181565b60405180910390f35b6102b0610966565b6040516102bd91906120bb565b60405180910390f35b6102e060048036038101906102db91906122de565b610a07565b005b6102fc60048036038101906102f79190612453565b610a1d565b005b61031860048036038101906103139190612113565b610a42565b60405161032591906120bb565b60405180910390f35b610348600480360381019061034391906124d6565b610b66565b6040516103559190612010565b60405180910390f35b610378600480360381019061037391906125b7565b610c08565b6040516103859190612297565b60405180910390f35b6103a860048036038101906103a3919061225b565b610c4d565b005b6000634906490660e01b7bffffffffffffffffffffffffffffffffffffffffffffffffffffffff1916827bffffffffffffffffffffffffffffffffffffffffffffffffffffffff19161480610404575061040382610cd3565b5b9050919050565b60606000610417610db5565b905080600001805461042890612642565b80601f016020809104026020016040519081016040528092919081815260200182805461045490612642565b80156104a15780601f10610476576101008083540402835291602001916104a1565b820191906000526020600020905b81548152906001019060200180831161048457829003601f168201915b505050505091505090565b60006104b782610ddd565b506104c182610e65565b9050919050565b6104da82826104d5610eb0565b610eb8565b5050565b600073ffffffffffffffffffffffffffffffffffffffff168273ffffffffffffffffffffffffffffffffffffffff16036105505760006040517f64a0ae920000000000000000000000000000000000000000000000000000000081526004016105479190612181565b60405180910390fd5b6000610564838361055f610eb0565b610eca565b90508373ffffffffffffffffffffffffffffffffffffffff168173ffffffffffffffffffffffffffffffffffffffff16146105da578382826040517f64283d7b0000000000000000000000000000000000000000000000000000000081526004016105d193929190612673565b60405180910390fd5b50505050565b6105fb83838360405180602001604052806000815250610a1d565b505050565b60606040518060400160405280600581526020017f312e302e30000000000000000000000000000000000000000000000000000000815250905090565b600061064882610ddd565b9050919050565b60008061065a610db5565b9050600073ffffffffffffffffffffffffffffffffffffffff168373ffffffffffffffffffffffffffffffffffffffff16036106ce5760006040517f89c62b640000000000000000000000000000000000000000000000000000000081526004016106c59190612181565b60405180910390fd5b8060030160008473ffffffffffffffffffffffffffffffffffffffff1673ffffffffffffffffffffffffffffffffffffffff16815260200190815260200160002054915050919050565b6107206110f7565b61072a600061117e565b565b6000610736611255565b905060008160000160089054906101000a900460ff1615905060008260000160009054906101000a900467ffffffffffffffff1690506000808267ffffffffffffffff161480156107845750825b9050600060018367ffffffffffffffff161480156107b9575060003073ffffffffffffffffffffffffffffffffffffffff163b145b9050811580156107c7575080155b156107fe576040517ff92ee8a900000000000000000000000000000000000000000000000000000000815260040160405180910390fd5b60018560000160006101000a81548167ffffffffffffffff021916908367ffffffffffffffff160217905550831561084e5760018560000160086101000a81548160ff0219169083151502179055505b6108c26040518060400160405280600581526020017f4d794e46540000000000000000000000000000000000000000000000000000008152506040518060400160405280600681526020017f596f6f4e4654000000000000000000000000000000000000000000000000000081525061127d565b6108cb33611293565b83156109275760008560000160086101000a81548160ff0219169083151502179055507fc7f505b2f371ae2175ee4913f4499e1f2633a7b5936321eed1cdaeb6115181d2600160405161091e9190612703565b60405180910390a15b5050505050565b6000806109396112a7565b90508060000160009054906101000a900473ffffffffffffffffffffffffffffffffffffffff1691505090565b60606000610972610db5565b905080600101805461098390612642565b80601f01602080910402602001604051908101604052809291908181526020018280546109af90612642565b80156109fc5780601f106109d1576101008083540402835291602001916109fc565b820191906000526020600020905b8154815290600101906020018083116109df57829003601f168201915b505050505091505090565b610a19610a12610eb0565b83836112cf565b5050565b610a288484846104de565b610a3c610a33610eb0565b8585858561144d565b50505050565b60606000610a4e6115fe565b9050610a5983610ddd565b5060008160000160008581526020019081526020016000208054610a7c90612642565b80601f0160208091040260200160405190810160405280929190818152602001828054610aa890612642565b8015610af55780601f10610aca57610100808354040283529160200191610af5565b820191906000526020600020905b815481529060010190602001808311610ad857829003601f168201915b505050505090506000610b06611626565b90506000815103610b1c57819350505050610b61565b600082511115610b52578082604051602001610b3992919061275a565b6040516020818303038152906040529350505050610b61565b610b5b8561163d565b93505050505b919050565b600080610b71610db5565b90508060050160008573ffffffffffffffffffffffffffffffffffffffff1673ffffffffffffffffffffffffffffffffffffffff16815260200190815260200160002060008473ffffffffffffffffffffffffffffffffffffffff1673ffffffffffffffffffffffffffffffffffffffff16815260200190815260200160002060009054906101000a900460ff1691505092915050565b6000610c126110f7565b600080815480929190610c24906127ad565b9190505550600080549050610c3984826116a6565b610c43818461179f565b8091505092915050565b610c556110f7565b600073ffffffffffffffffffffffffffffffffffffffff168173ffffffffffffffffffffffffffffffffffffffff1603610cc75760006040517f1e4fbdf7000000000000000000000000000000000000000000000000000000008152600401610cbe9190612181565b60405180910390fd5b610cd08161117e565b50565b60007f80ac58cd000000000000000000000000000000000000000000000000000000007bffffffffffffffffffffffffffffffffffffffffffffffffffffffff1916827bffffffffffffffffffffffffffffffffffffffffffffffffffffffff19161480610d9e57507f5b5e139f000000000000000000000000000000000000000000000000000000007bffffffffffffffffffffffffffffffffffffffffffffffffffffffff1916827bffffffffffffffffffffffffffffffffffffffffffffffffffffffff1916145b80610dae5750610dad8261180a565b5b9050919050565b60007f80bb2b638cc20bc4d0a60d66940f3ab4a00c1d7b313497ca82fb0b4ab0079300905090565b600080610de983611874565b9050600073ffffffffffffffffffffffffffffffffffffffff168173ffffffffffffffffffffffffffffffffffffffff1603610e5c57826040517f7e273289000000000000000000000000000000000000000000000000000000008152600401610e539190612297565b60405180910390fd5b80915050919050565b600080610e70610db5565b905080600401600084815260200190815260200160002060009054906101000a900473ffffffffffffffffffffffffffffffffffffffff16915050919050565b600033905090565b610ec583838360016118bf565b505050565b600080610ed5610db5565b90506000610ee285611874565b9050600073ffffffffffffffffffffffffffffffffffffffff168473ffffffffffffffffffffffffffffffffffffffff1614610f2457610f23818587611a93565b5b600073ffffffffffffffffffffffffffffffffffffffff168173ffffffffffffffffffffffffffffffffffffffff1614610fb757610f666000866000806118bf565b60018260030160008373ffffffffffffffffffffffffffffffffffffffff1673ffffffffffffffffffffffffffffffffffffffff168152602001908152602001600020600082825403925050819055505b600073ffffffffffffffffffffffffffffffffffffffff168673ffffffffffffffffffffffffffffffffffffffff161461103c5760018260030160008873ffffffffffffffffffffffffffffffffffffffff1673ffffffffffffffffffffffffffffffffffffffff168152602001908152602001600020600082825401925050819055505b8582600201600087815260200190815260200160002060006101000a81548173ffffffffffffffffffffffffffffffffffffffff021916908373ffffffffffffffffffffffffffffffffffffffff160217905550848673ffffffffffffffffffffffffffffffffffffffff168273ffffffffffffffffffffffffffffffffffffffff167fddf252ad1be2c89b69c2b068fc378daa952ba7f163c4a11628f55a4df523b3ef60405160405180910390a480925050509392505050565b6110ff610eb0565b73ffffffffffffffffffffffffffffffffffffffff1661111d61092e565b73ffffffffffffffffffffffffffffffffffffffff161461117c57611140610eb0565b6040517f118cdaa70000000000000000000000000000000000000000000000000000000081526004016111739190612181565b60405180910390fd5b565b60006111886112a7565b905060008160000160009054906101000a900473ffffffffffffffffffffffffffffffffffffffff169050828260000160006101000a81548173ffffffffffffffffffffffffffffffffffffffff021916908373ffffffffffffffffffffffffffffffffffffffff1602179055508273ffffffffffffffffffffffffffffffffffffffff168173ffffffffffffffffffffffffffffffffffffffff167f8be0079c531659141344cd1fd0a4f28419497f9722a3daafe3b4186f6b6457e060405160405180910390a3505050565b60007ff0c57e16840df040f15088dc2f81fe391c3923bec73e23a9662efc9c229c6a00905090565b611285611b57565b61128f8282611b97565b5050565b61129b611b57565b6112a481611bd4565b50565b60007f9016d09d72d40fdae2fd8ceac6b6234c7706214fd39c1cd1e609a0528c199300905090565b60006112d9610db5565b9050600073ffffffffffffffffffffffffffffffffffffffff168373ffffffffffffffffffffffffffffffffffffffff160361134c57826040517f5b08ba180000000000000000000000000000000000000000000000000000000081526004016113439190612181565b60405180910390fd5b818160050160008673ffffffffffffffffffffffffffffffffffffffff1673ffffffffffffffffffffffffffffffffffffffff16815260200190815260200160002060008573ffffffffffffffffffffffffffffffffffffffff1673ffffffffffffffffffffffffffffffffffffffff16815260200190815260200160002060006101000a81548160ff0219169083151502179055508273ffffffffffffffffffffffffffffffffffffffff168473ffffffffffffffffffffffffffffffffffffffff167f17307eab39ab6107e8899845ad3d59bd9653f200f220920489ca2b5937696c318460405161143f9190612010565b60405180910390a350505050565b60008373ffffffffffffffffffffffffffffffffffffffff163b11156115f7578273ffffffffffffffffffffffffffffffffffffffff1663150b7a02868685856040518563ffffffff1660e01b81526004016114ac949392919061284a565b6020604051808303816000875af19250505080156114e857506040513d601f19601f820116820180604052508101906114e591906128ab565b60015b61156c573d8060008114611518576040519150601f19603f3d011682016040523d82523d6000602084013e61151d565b606091505b50600081510361156457836040517f64a0ae9200000000000000000000000000000000000000000000000000000000815260040161155b9190612181565b60405180910390fd5b805181602001fd5b63150b7a0260e01b7bffffffffffffffffffffffffffffffffffffffffffffffffffffffff1916817bffffffffffffffffffffffffffffffffffffffffffffffffffffffff1916146115f557836040517f64a0ae920000000000000000000000000000000000000000000000000000000081526004016115ec9190612181565b60405180910390fd5b505b5050505050565b60007f0542a41881ee128a365a727b282c86fa859579490b9bb45aab8503648c8e7900905090565b606060405180602001604052806000815250905090565b606061164882610ddd565b506000611653611626565b90506000815111611673576040518060200160405280600081525061169e565b8061167d84611c5a565b60405160200161168e92919061275a565b6040516020818303038152906040525b915050919050565b600073ffffffffffffffffffffffffffffffffffffffff168273ffffffffffffffffffffffffffffffffffffffff16036117185760006040517f64a0ae9200000000000000000000000000000000000000000000000000000000815260040161170f9190612181565b60405180910390fd5b600061172683836000610eca565b9050600073ffffffffffffffffffffffffffffffffffffffff168173ffffffffffffffffffffffffffffffffffffffff161461179a5760006040517f73c6ac6e0000000000000000000000000000000000000000000000000000000081526004016117919190612181565b60405180910390fd5b505050565b60006117a96115fe565b90508181600001600085815260200190815260200160002090816117cd9190612a7a565b507ff8e1a15aba9398e019f0b49df1a4fde98ee17ae345cb5f6b5e2c27f5033e8ce7836040516117fd9190612297565b60405180910390a1505050565b60007f01ffc9a7000000000000000000000000000000000000000000000000000000007bffffffffffffffffffffffffffffffffffffffffffffffffffffffff1916827bffffffffffffffffffffffffffffffffffffffffffffffffffffffff1916149050919050565b60008061187f610db5565b905080600201600084815260200190815260200160002060009054906101000a900473ffffffffffffffffffffffffffffffffffffffff16915050919050565b60006118c9610db5565b905081806119045750600073ffffffffffffffffffffffffffffffffffffffff168373ffffffffffffffffffffffffffffffffffffffff1614155b15611a3857600061191485610ddd565b9050600073ffffffffffffffffffffffffffffffffffffffff168473ffffffffffffffffffffffffffffffffffffffff161415801561197f57508373ffffffffffffffffffffffffffffffffffffffff168173ffffffffffffffffffffffffffffffffffffffff1614155b801561199257506119908185610b66565b155b156119d457836040517fa9fbf51f0000000000000000000000000000000000000000000000000000000081526004016119cb9190612181565b60405180910390fd5b8215611a3657848673ffffffffffffffffffffffffffffffffffffffff168273ffffffffffffffffffffffffffffffffffffffff167f8c5be1e5ebec7d5bd14f71427d1e84f3dd0314c0f7b2291e5b200ac8c7c3b92560405160405180910390a45b505b8481600401600086815260200190815260200160002060006101000a81548173ffffffffffffffffffffffffffffffffffffffff021916908373ffffffffffffffffffffffffffffffffffffffff1602179055505050505050565b611a9e838383611d28565b611b5257600073ffffffffffffffffffffffffffffffffffffffff168373ffffffffffffffffffffffffffffffffffffffff1603611b1357806040517f7e273289000000000000000000000000000000000000000000000000000000008152600401611b0a9190612297565b60405180910390fd5b81816040517f177e802f000000000000000000000000000000000000000000000000000000008152600401611b49929190612b4c565b60405180910390fd5b505050565b611b5f611de9565b611b95576040517fd7e6bcf800000000000000000000000000000000000000000000000000000000815260040160405180910390fd5b565b611b9f611b57565b6000611ba9610db5565b905082816000019081611bbc9190612a7a565b5081816001019081611bce9190612a7a565b50505050565b611bdc611b57565b600073ffffffffffffffffffffffffffffffffffffffff168173ffffffffffffffffffffffffffffffffffffffff1603611c4e5760006040517f1e4fbdf7000000000000000000000000000000000000000000000000000000008152600401611c459190612181565b60405180910390fd5b611c578161117e565b50565b606060006001611c6984611e09565b01905060008167ffffffffffffffff811115611c8857611c87612328565b5b6040519080825280601f01601f191660200182016040528015611cba5781602001600182028036833780820191505090505b509050600082602001820190505b600115611d1d578080600190039150507f3031323334353637383961626364656600000000000000000000000000000000600a86061a8153600a8581611d1157611d10612b75565b5b04945060008503611cc8575b819350505050919050565b60008073ffffffffffffffffffffffffffffffffffffffff168373ffffffffffffffffffffffffffffffffffffffff1614158015611de057508273ffffffffffffffffffffffffffffffffffffffff168473ffffffffffffffffffffffffffffffffffffffff161480611da15750611da08484610b66565b5b80611ddf57508273ffffffffffffffffffffffffffffffffffffffff16611dc783610e65565b73ffffffffffffffffffffffffffffffffffffffff16145b5b90509392505050565b6000611df3611255565b60000160089054906101000a900460ff16905090565b600080600090507a184f03e93ff9f4daa797ed6e38ed64bf6a1f0100000000000000008310611e67577a184f03e93ff9f4daa797ed6e38ed64bf6a1f0100000000000000008381611e5d57611e5c612b75565b5b0492506040810190505b6d04ee2d6d415b85acef81000000008310611ea4576d04ee2d6d415b85acef81000000008381611e9a57611e99612b75565b5b0492506020810190505b662386f26fc100008310611ed357662386f26fc100008381611ec957611ec8612b75565b5b0492506010810190505b6305f5e1008310611efc576305f5e1008381611ef257611ef1612b75565b5b0492506008810190505b6127108310611f21576127108381611f1757611f16612b75565b5b0492506004810190505b60648310611f445760648381611f3a57611f39612b75565b5b0492506002810190505b600a8310611f53576001810190505b80915050919050565b6000604051905090565b600080fd5b600080fd5b60007fffffffff0000000000000000000000000000000000000000000000000000000082169050919050565b611fa581611f70565b8114611fb057600080fd5b50565b600081359050611fc281611f9c565b92915050565b600060208284031215611fde57611fdd611f66565b5b6000611fec84828501611fb3565b91505092915050565b60008115159050919050565b61200a81611ff5565b82525050565b60006020820190506120256000830184612001565b92915050565b600081519050919050565b600082825260208201905092915050565b60005b8381101561206557808201518184015260208101905061204a565b60008484015250505050565b6000601f19601f8301169050919050565b600061208d8261202b565b6120978185612036565b93506120a7818560208601612047565b6120b081612071565b840191505092915050565b600060208201905081810360008301526120d58184612082565b905092915050565b6000819050919050565b6120f0816120dd565b81146120fb57600080fd5b50565b60008135905061210d816120e7565b92915050565b60006020828403121561212957612128611f66565b5b6000612137848285016120fe565b91505092915050565b600073ffffffffffffffffffffffffffffffffffffffff82169050919050565b600061216b82612140565b9050919050565b61217b81612160565b82525050565b60006020820190506121966000830184612172565b92915050565b6121a581612160565b81146121b057600080fd5b50565b6000813590506121c28161219c565b92915050565b600080604083850312156121df576121de611f66565b5b60006121ed858286016121b3565b92505060206121fe858286016120fe565b9150509250929050565b60008060006060848603121561222157612220611f66565b5b600061222f868287016121b3565b9350506020612240868287016121b3565b9250506040612251868287016120fe565b9150509250925092565b60006020828403121561227157612270611f66565b5b600061227f848285016121b3565b91505092915050565b612291816120dd565b82525050565b60006020820190506122ac6000830184612288565b92915050565b6122bb81611ff5565b81146122c657600080fd5b50565b6000813590506122d8816122b2565b92915050565b600080604083850312156122f5576122f4611f66565b5b6000612303858286016121b3565b9250506020612314858286016122c9565b9150509250929050565b600080fd5b600080fd5b7f4e487b7100000000000000000000000000000000000000000000000000000000600052604160045260246000fd5b61236082612071565b810181811067ffffffffffffffff8211171561237f5761237e612328565b5b80604052505050565b6000612392611f5c565b905061239e8282612357565b919050565b600067ffffffffffffffff8211156123be576123bd612328565b5b6123c782612071565b9050602081019050919050565b82818337600083830152505050565b60006123f66123f1846123a3565b612388565b90508281526020810184848401111561241257612411612323565b5b61241d8482856123d4565b509392505050565b600082601f83011261243a5761243961231e565b5b813561244a8482602086016123e3565b91505092915050565b6000806000806080858703121561246d5761246c611f66565b5b600061247b878288016121b3565b945050602061248c878288016121b3565b935050604061249d878288016120fe565b925050606085013567ffffffffffffffff8111156124be576124bd611f6b565b5b6124ca87828801612425565b91505092959194509250565b600080604083850312156124ed576124ec611f66565b5b60006124fb858286016121b3565b925050602061250c858286016121b3565b9150509250929050565b600067ffffffffffffffff82111561253157612530612328565b5b61253a82612071565b9050602081019050919050565b600061255a61255584612516565b612388565b90508281526020810184848401111561257657612575612323565b5b6125818482856123d4565b509392505050565b600082601f83011261259e5761259d61231e565b5b81356125ae848260208601612547565b91505092915050565b600080604083850312156125ce576125cd611f66565b5b60006125dc858286016121b3565b925050602083013567ffffffffffffffff8111156125fd576125fc611f6b565b5b61260985828601612589565b9150509250929050565b7f4e487b7100000000000000000000000000000000000000000000000000000000600052602260045260246000fd5b6000600282049050600182168061265a57607f821691505b60208210810361266d5761266c612613565b5b50919050565b60006060820190506126886000830186612172565b6126956020830185612288565b6126a26040830184612172565b949350505050565b6000819050919050565b600067ffffffffffffffff82169050919050565b6000819050919050565b60006126ed6126e86126e3846126aa565b6126c8565b6126b4565b9050919050565b6126fd816126d2565b82525050565b600060208201905061271860008301846126f4565b92915050565b600081905092915050565b60006127348261202b565b61273e818561271e565b935061274e818560208601612047565b80840191505092915050565b60006127668285612729565b91506127728284612729565b91508190509392505050565b7f4e487b7100000000000000000000000000000000000000000000000000000000600052601160045260246000fd5b60006127b8826120dd565b91507fffffffffffffffffffffffffffffffffffffffffffffffffffffffffffffffff82036127ea576127e961277e565b5b600182019050919050565b600081519050919050565b600082825260208201905092915050565b600061281c826127f5565b6128268185612800565b9350612836818560208601612047565b61283f81612071565b840191505092915050565b600060808201905061285f6000830187612172565b61286c6020830186612172565b6128796040830185612288565b818103606083015261288b8184612811565b905095945050505050565b6000815190506128a581611f9c565b92915050565b6000602082840312156128c1576128c0611f66565b5b60006128cf84828501612896565b91505092915050565b60008190508160005260206000209050919050565b60006020601f8301049050919050565b600082821b905092915050565b60006008830261293a7fffffffffffffffffffffffffffffffffffffffffffffffffffffffffffffffff826128fd565b61294486836128fd565b95508019841693508086168417925050509392505050565b600061297761297261296d846120dd565b6126c8565b6120dd565b9050919050565b6000819050919050565b6129918361295c565b6129a561299d8261297e565b84845461290a565b825550505050565b600090565b6129ba6129ad565b6129c5818484612988565b505050565b5b818110156129e9576129de6000826129b2565b6001810190506129cb565b5050565b601f821115612a2e576129ff816128d8565b612a08846128ed565b81016020851015612a17578190505b612a2b612a23856128ed565b8301826129ca565b50505b505050565b600082821c905092915050565b6000612a5160001984600802612a33565b1980831691505092915050565b6000612a6a8383612a40565b9150826002028217905092915050565b612a838261202b565b67ffffffffffffffff811115612a9c57612a9b612328565b5b612aa68254612642565b612ab18282856129ed565b600060209050601f831160018114612ae45760008415612ad2578287015190505b612adc8582612a5e565b865550612b44565b601f198416612af2866128d8565b60005b82811015612b1a57848901518255600182019150602085019450602081019050612af5565b86831015612b375784890151612b33601f891682612a40565b8355505b6001600288020188555050505b505050505050565b6000604082019050612b616000830185612172565b612b6e6020830184612288565b9392505050565b7f4e487b7100000000000000000000000000000000000000000000000000000000600052601260045260246000fdfea264697066735822122021fb23eb60dda2864bb124167a3b6bc27cfd8f8ad77d981654e38a9344e9a70264736f6c634300081c0033",
  "linkReferences": {},
  "deployedLinkReferences": {}
}