{
  "_format": "hh-sol-artifact-1",
  "contractName": "MyNFTV3",
  "sourceName": "contracts/MyNFTV3.sol",
  "abi": [
    {
      "inputs": [
        {
          "internalType": "address",
          "name": "sender",
          "type": "address"
        },
        {
          "internalType": "uint256",
          "name": "tokenId",
          "type": "uint256"
        },
        {
          "internalType": "address",
          "name": "owner",
          "type": "address"
        }
      ],
      "name": "ERC721IncorrectOwner",
      "type": "error"
    },
    {
      "inputs": [
        {
          "internalType": "address",
          "name": "operator",
          "type": "address"
        },
        {
          "internalType": "uint256",
          "name": "tokenId",
          "type": "uint256"
        }
      ],
      "name": "ERC721InsufficientApproval",
      "type": "error"
    },
    {
      "inputs": [
        {
          "internalType": "address",
          "name": "approver",
          "type": "address"
        }
      ],
      "name": "ERC721InvalidApprover",
      "type": "error"
    },
    {
      "inputs": [
        {
          "internalType": "address",
          "name": "operator",
          "type": "address"
        }
      ],
      "name": "ERC721InvalidOperator",
      "type": "error"
    },
    {
      "inputs": [
        {
          "internalType": "address",
          "name": "owner",
          "type": "address"
        }
      ],
      "name": "ERC721InvalidOwner",
      "type": "error"
    },
    {
      "inputs": [
        {
          "internalType": "address",
          "name": "receiver",
          "type": "address"
        }
      ],
      "name": "ERC721InvalidReceiver",
      "type": "error"
    },
    {
      "inputs": [
        {
          "internalType": "address",
          "name": "sender",
          "type": "address"
        }
      ],
      "name": "ERC721InvalidSender",
      "type": "error"
    },
    {
      "inputs": [
        {
          "internalType": "uint256",
          "name": "tokenId",
          "type": "uint256"
        }
      ],
      "name": "ERC721NonexistentToken",
      "type": "error"
    },
    {
      "inputs": [],
      "name": "InvalidInitialization",
      "type": "error"
    },
    {
      "inputs": [],
      "name": "NotInitializing",
      "type": "error"
    },
    {
      "inputs": [
        {
          "internalType": "address",
          "name": "owner",
          "type": "address"
        }
      ],
      "name": "OwnableInvalidOwner",
      "type": "error"
    },
    {
      "inputs": [
        {
          "internalType": "address",
          "name": "account",
          "type": "address"
        }
      ],
      "name": "OwnableUnauthorizedAccount",
      "type": "error"
    },
    {
      "anonymous": false,
      "inputs": [
        {
          "indexed": true,
          "internalType": "address",
          "name": "owner",
          "type": "address"
        },
        {
          "indexed": true,
          "internalType": "address",
          "name": "approved",
          "type": "address"
        },
        {
          "indexed": true,
          "internalType": "uint256",
          "name": "tokenId",
          "type": "uint256"
        }
      ],
      "name": "Approval",
      "type": "event"
    },
    {
      "anonymous": false,
      "inputs": [
        {
          "indexed": true,
          "internalType": "address",
          "name": "owner",
          "type": "address"
        },
        {
          "indexed": true,
          "internalType": "address",
          "name": "operator",
          "type": "address"
        },
        {
          "indexed": false,
          "internalType": "bool",
          "name": "approved",
          "type": "bool"
        }
      ],
      "name": "ApprovalForAll",
      "type": "event"
    },
    {
      "anonymous": false,
      "inputs": [
        {
          "indexed": false,
          "internalType": "uint256",
          "name": "_fromTokenId",
          "type": "uint256"
        },
        {
          "indexed": false,
          "internalType": "uint256",
          "name": "_toTokenId",
          "type": "uint256"
        }
      ],
      "name": "BatchMetadataUpdate",
      "type": "event"
    },
    {
      "anonymous": false,
      "inputs": [
        {
          "indexed": false,
          "internalType": "uint64",
          "name": "version",
          "type": "uint64"
        }
      ],
      "name": "Initialized",
      "type": "event"
    },
    {
      "anonymous": false,
      "inputs": [
        {
          "indexed": false,
          "internalType": "uint256",
          "name": "_tokenId",
          "type": "uint256"
        }
      ],
      "name": "MetadataUpdate",
      "type": "event"
    },
    {
      "anonymous": false,
      "inputs": [
        {
          "indexed": true,
          "internalType": "address",
          "name": "previousOwner",
          "type": "address"
        },
        {
          "indexed": true,
          "internalType": "address",
          "name": "newOwner",
          "type": "address"
        }
      ],
      "name": "OwnershipTransferred",
      "type": "event"
    },
    {
      "anonymous": false,
      "inputs": [
        {
          "indexed": true,
          "internalType": "address",
          "name": "from",
          "type": "address"
        },
        {
          "indexed": true,
          "internalType": "address",
          "name": "to",
          "type": "address"
        },
        {
          "indexed": true,
          "internalType": "uint256",
          "name": "tokenId",
          "type": "uint256"
        }
      ],
      "name": "Transfer",
      "type": "event"
    },
    {
      "inputs": [
        {
          "internalType": "address",
          "name": "to",
          "type": "address"
        },
        {
          "internalType": "uint256",
          "name": "tokenId",
          "type": "uint256"
        }
      ],
      "name": "approve",
      "outputs": [],
      "stateMutability": "nonpayable",
      "type": "function"
    },
    {
      "inputs": [],
      "name": "author",
      "outputs": [
        {
          "internalType": "string",
          "name": "",
          "type": "string"
        }
      ],
      "stateMutability": "pure",
      "type": "function"
    },
    {
      "inputs": [
        {
          "internalType": "address",
          "name": "owner",
          "type": "address"
        }
      ],
      "name": "balanceOf",
      "outputs": [
        {
          "internalType": "uint256",
          "name": "",
          "type": "uint256"
        }
      ],
      "stateMutability": "view",
      "type": "function"
    },
    {
      "inputs": [
        {
          "internalType": "uint256",
          "name": "tokenId",
          "type": "uint256"
        }
      ],
      "name": "getApproved",
      "outputs": [
        {
          "internalType": "address",
          "name": "",
          "type": "address"
        }
      ],
      "stateMutability": "view",
      "type": "function"
    },
    {
      "inputs": [
        {
          "internalType": "address",
          "name": "owner",
          "type": "address"
        }
      ],
      "name": "getNFTsByOwner",
      "outputs": [
        {
          "internalType": "uint256[]",
          "name": "",
          "type": "uint256[]"
        }
      ],
      "stateMutability": "view",
      "type": "function"
    },
    {
      "inputs": [
        {
          "internalType": "uint256",
          "name": "tokenId",
          "type": "uint256"
        }
      ],
      "name": "getTokenURI",
      "outputs": [
        {
          "internalType": "string",
          "name": "",
          "type": "string"
        }
      ],
      "stateMutability": "view",
      "type": "function"
    },
    {
      "inputs": [],
      "name": "initialize",
      "outputs": [],
      "stateMutability": "nonpayable",
      "type": "function"
    },
    {
      "inputs": [
        {
          "internalType": "address",
          "name": "owner",
          "type": "address"
        },
        {
          "internalType": "address",
          "name": "operator",
          "type": "address"
        }
      ],
      "name": "isApprovedForAll",
      "outputs": [
        {
          "internalType": "bool",
          "name": "",
          "type": "bool"
        }
      ],
      "stateMutability": "view",
      "type": "function"
    },
    {
      "inputs": [
        {
          "internalType": "address",
          "name": "recipient",
          "type": "address"
        },
        {
          "internalType": "string",
          "name": "tokenURI",
          "type": "string"
        }
      ],
      "name": "mintNFT",
      "outputs": [
        {
          "internalType": "uint256",
          "name": "",
          "type": "uint256"
        }
      ],
      "stateMutability": "nonpayable",
      "type": "function"
    },
    {
      "inputs": [],
      "name": "name",
      "outputs": [
        {
          "internalType": "string",
          "name": "",
          "type": "string"
        }
      ],
      "stateMutability": "view",
      "type": "function"
    },
    {
      "inputs": [],
      "name": "owner",
      "outputs": [
        {
          "internalType": "address",
          "name": "",
          "type": "address"
        }
      ],
      "stateMutability": "view",
      "type": "function"
    },
    {
      "inputs": [
        {
          "internalType": "uint256",
          "name": "tokenId",
          "type": "uint256"
        }
      ],
      "name": "ownerOf",
      "outputs": [
        {
          "internalType": "address",
          "name": "",
          "type": "address"
        }
      ],
      "stateMutability": "view",
      "type": "function"
    },
    {
      "inputs": [],
      "name": "renounceOwnership",
      "outputs": [],
      "stateMutability": "nonpayable",
      "type": "function"
    },
    {
      "inputs": [
        {
          "internalType": "address",
          "name": "from",
          "type": "address"
        },
        {
          "internalType": "address",
          "name": "to",
          "type": "address"
        },
        {
          "internalType": "uint256",
          "name": "tokenId",
          "type": "uint256"
        }
      ],
      "name": "safeTransferFrom",
      "outputs": [],
      "stateMutability": "nonpayable",
      "type": "function"
    },
    {
      "inputs": [
        {
          "internalType": "address",
          "name": "from",
          "type": "address"
        },
        {
          "internalType": "address",
          "name": "to",
          "type": "address"
        },
        {
          "internalType": "uint256",
          "name": "tokenId",
          "type": "uint256"
        },
        {
          "internalType": "bytes",
          "name": "data",
          "type": "bytes"
        }
      ],
      "name": "safeTransferFrom",
      "outputs": [],
      "stateMutability": "nonpayable",
      "type": "function"
    },
    {
      "inputs": [
        {
          "internalType": "address",
          "name": "operator",
          "type": "address"
        },
        {
          "internalType": "bool",
          "name": "approved",
          "type": "bool"
        }
      ],
      "name": "setApprovalForAll",
      "outputs": [],
      "stateMutability": "nonpayable",
      "type": "function"
    },
    {
      "inputs": [
        {
          "internalType": "bytes4",
          "name": "interfaceId",
          "type": "bytes4"
        }
      ],
      "name": "supportsInterface",
      "outputs": [
        {
          "internalType": "bool",
          "name": "",
          "type": "bool"
        }
      ],
      "stateMutability": "view",
      "type": "function"
    },
    {
      "inputs": [],
      "name": "symbol",
      "outputs": [
        {
          "internalType": "string",
          "name": "",
          "type": "string"
        }
      ],
      "stateMutability": "view",
      "type": "function"
    },
    {
      "inputs": [
        {
          "internalType": "uint256",
          "name": "tokenId",
          "type": "uint256"
        }
      ],
      "name": "tokenURI",
      "outputs": [
        {
          "internalType": "string",
          "name": "",
          "type": "string"
        }
      ],
      "stateMutability": "view",
      "type": "function"
    },
    {
      "inputs": [],
      "name": "totalMintedNFTs",
      "outputs": [
        {
          "internalType": "uint256",
          "name": "",
          "type": "uint256"
        }
      ],
      "stateMutability": "view",
      "type": "function"
    },
    {
      "inputs": [
        {
          "internalType": "address",
          "name": "from",
          "type": "address"
        },
        {
          "internalType": "address",
          "name": "to",
          "type": "address"
        },
        {
          "internalType": "uint256",
          "name": "tokenId",
          "type": "uint256"
        }
      ],
      "name": "transferFrom",
      "outputs": [],
      "stateMutability": "nonpayable",
      "type": "function"
    },
    {
      "inputs": [
        {
          "internalType": "address",
          "name": "newOwner",
          "type": "address"
        }
      ],
      "name": "transferOwnership",
      "outputs": [],
      "stateMutability": "nonpayable",
      "type": "function"
    },
    {
      "inputs": [],
      "name": "version",
      "outputs": [
        {
          "internalType": "string",
          "name": "",
          "type": "string"
        }
      ],
      "stateMutability": "pure",
      "type": "function"
    }
  ],
  "bytecode": "0x6080604052348015600f57600080fd5b50612ee98061001f6000396000f3fe608060405234801561001057600080fd5b506004361061014d5760003560e01c8063715018a6116100c3578063b88d4fde1161007c578063b88d4fde1461037a578063c87b56dd14610396578063e2afe8b3146103c6578063e985e9c5146103f6578063eacabe1414610426578063f2fde38b146104565761014d565b8063715018a6146102f05780638129fc1c146102fa5780638da5cb5b1461030457806395d89b4114610322578063a22cb46514610340578063a6c3e6b91461035c5761014d565b806323b872dd1161011557806323b872dd1461020a5780633bb3a24d1461022657806342842e0e1461025657806354fd4d50146102725780636352211e1461029057806370a08231146102c05761014d565b806301ffc9a714610152578063052710b61461018257806306fdde03146101a0578063081812fc146101be578063095ea7b3146101ee575b600080fd5b61016c600480360381019061016791906121f7565b610472565b604051610179919061223f565b60405180910390f35b61018a6104d3565b6040516101979190612273565b60405180910390f35b6101a86104dc565b6040516101b5919061231e565b60405180910390f35b6101d860048036038101906101d3919061236c565b61057d565b6040516101e591906123da565b60405180910390f35b61020860048036038101906102039190612421565b610599565b005b610224600480360381019061021f9190612461565b6105af565b005b610240600480360381019061023b919061236c565b6106b1565b60405161024d919061231e565b60405180910390f35b610270600480360381019061026b9190612461565b6106c3565b005b61027a6106e3565b604051610287919061231e565b60405180910390f35b6102aa60048036038101906102a5919061236c565b610720565b6040516102b791906123da565b60405180910390f35b6102da60048036038101906102d591906124b4565b610732565b6040516102e79190612273565b60405180910390f35b6102f86107fb565b005b61030261080f565b005b61030c610a19565b60405161031991906123da565b60405180910390f35b61032a610a51565b604051610337919061231e565b60405180910390f35b61035a6004803603810190610355919061250d565b610af2565b005b610364610b08565b604051610371919061231e565b60405180910390f35b610394600480360381019061038f9190612682565b610b45565b005b6103b060048036038101906103ab919061236c565b610b6a565b6040516103bd919061231e565b60405180910390f35b6103e060048036038101906103db91906124b4565b610c8e565b6040516103ed91906127c3565b60405180910390f35b610410600480360381019061040b91906127e5565b610d25565b60405161041d919061223f565b60405180910390f35b610440600480360381019061043b91906128c6565b610dc7565b60405161044d9190612273565b60405180910390f35b610470600480360381019061046b91906124b4565b610e72565b005b6000634906490660e01b7bffffffffffffffffffffffffffffffffffffffffffffffffffffffff1916827bffffffffffffffffffffffffffffffffffffffffffffffffffffffff191614806104cc57506104cb82610ef8565b5b9050919050565b60008054905090565b606060006104e8610fda565b90508060000180546104f990612951565b80601f016020809104026020016040519081016040528092919081815260200182805461052590612951565b80156105725780601f1061054757610100808354040283529160200191610572565b820191906000526020600020905b81548152906001019060200180831161055557829003601f168201915b505050505091505090565b600061058882611002565b506105928261108a565b9050919050565b6105ab82826105a66110d5565b6110dd565b5050565b600073ffffffffffffffffffffffffffffffffffffffff168273ffffffffffffffffffffffffffffffffffffffff16036106215760006040517f64a0ae9200000000000000000000000000000000000000000000000000000000815260040161061891906123da565b60405180910390fd5b600061063583836106306110d5565b6110ef565b90508373ffffffffffffffffffffffffffffffffffffffff168173ffffffffffffffffffffffffffffffffffffffff16146106ab578382826040517f64283d7b0000000000000000000000000000000000000000000000000000000081526004016106a293929190612982565b60405180910390fd5b50505050565b60606106bc82610b6a565b9050919050565b6106de83838360405180602001604052806000815250610b45565b505050565b60606040518060400160405280600581526020017f312e312e30000000000000000000000000000000000000000000000000000000815250905090565b600061072b82611002565b9050919050565b60008061073d610fda565b9050600073ffffffffffffffffffffffffffffffffffffffff168373ffffffffffffffffffffffffffffffffffffffff16036107b15760006040517f89c62b640000000000000000000000000000000000000000000000000000000081526004016107a891906123da565b60405180910390fd5b8060030160008473ffffffffffffffffffffffffffffffffffffffff1673ffffffffffffffffffffffffffffffffffffffff16815260200190815260200160002054915050919050565b61080361131c565b61080d60006113a3565b565b600061081961147a565b905060008160000160089054906101000a900460ff1615905060008260000160009054906101000a900467ffffffffffffffff1690506000808267ffffffffffffffff161480156108675750825b9050600060018367ffffffffffffffff1614801561089c575060003073ffffffffffffffffffffffffffffffffffffffff163b145b9050811580156108aa575080155b156108e1576040517ff92ee8a900000000000000000000000000000000000000000000000000000000815260040160405180910390fd5b60018560000160006101000a81548167ffffffffffffffff021916908367ffffffffffffffff16021790555083156109315760018560000160086101000a81548160ff0219169083151502179055505b6109396114a2565b6109ad6040518060400160405280600581526020017f4d794e46540000000000000000000000000000000000000000000000000000008152506040518060400160405280600681526020017f596f6f4e465400000000000000000000000000000000000000000000000000008152506114ac565b6109b6336114c2565b8315610a125760008560000160086101000a81548160ff0219169083151502179055507fc7f505b2f371ae2175ee4913f4499e1f2633a7b5936321eed1cdaeb6115181d26001604051610a099190612a12565b60405180910390a15b5050505050565b600080610a246114d6565b90508060000160009054906101000a900473ffffffffffffffffffffffffffffffffffffffff1691505090565b60606000610a5d610fda565b9050806001018054610a6e90612951565b80601f0160208091040260200160405190810160405280929190818152602001828054610a9a90612951565b8015610ae75780601f10610abc57610100808354040283529160200191610ae7565b820191906000526020600020905b815481529060010190602001808311610aca57829003601f168201915b505050505091505090565b610b04610afd6110d5565b83836114fe565b5050565b60606040518060400160405280600e81526020017f5942575f323032345f31325f3238000000000000000000000000000000000000815250905090565b610b508484846105af565b610b64610b5b6110d5565b8585858561167c565b50505050565b60606000610b7661182d565b9050610b8183611002565b5060008160000160008581526020019081526020016000208054610ba490612951565b80601f0160208091040260200160405190810160405280929190818152602001828054610bd090612951565b8015610c1d5780601f10610bf257610100808354040283529160200191610c1d565b820191906000526020600020905b815481529060010190602001808311610c0057829003601f168201915b505050505090506000610c2e611855565b90506000815103610c4457819350505050610c89565b600082511115610c7a578082604051602001610c61929190612a69565b6040516020818303038152906040529350505050610c89565b610c838561186c565b93505050505b919050565b6060600160008373ffffffffffffffffffffffffffffffffffffffff1673ffffffffffffffffffffffffffffffffffffffff168152602001908152602001600020805480602002602001604051908101604052809291908181526020018280548015610d1957602002820191906000526020600020905b815481526020019060010190808311610d05575b50505050509050919050565b600080610d30610fda565b90508060050160008573ffffffffffffffffffffffffffffffffffffffff1673ffffffffffffffffffffffffffffffffffffffff16815260200190815260200160002060008473ffffffffffffffffffffffffffffffffffffffff1673ffffffffffffffffffffffffffffffffffffffff16815260200190815260200160002060009054906101000a900460ff1691505092915050565b6000610dd161131c565b600080815480929190610de390612abc565b9190505550600080549050610df884826118d5565b610e0281846119ce565b600160008573ffffffffffffffffffffffffffffffffffffffff1673ffffffffffffffffffffffffffffffffffffffff1681526020019081526020016000208190806001815401808255809150506001900390600052602060002001600090919091909150558091505092915050565b610e7a61131c565b600073ffffffffffffffffffffffffffffffffffffffff168173ffffffffffffffffffffffffffffffffffffffff1603610eec5760006040517f1e4fbdf7000000000000000000000000000000000000000000000000000000008152600401610ee391906123da565b60405180910390fd5b610ef5816113a3565b50565b60007f80ac58cd000000000000000000000000000000000000000000000000000000007bffffffffffffffffffffffffffffffffffffffffffffffffffffffff1916827bffffffffffffffffffffffffffffffffffffffffffffffffffffffff19161480610fc357507f5b5e139f000000000000000000000000000000000000000000000000000000007bffffffffffffffffffffffffffffffffffffffffffffffffffffffff1916827bffffffffffffffffffffffffffffffffffffffffffffffffffffffff1916145b80610fd35750610fd282611a39565b5b9050919050565b60007f80bb2b638cc20bc4d0a60d66940f3ab4a00c1d7b313497ca82fb0b4ab0079300905090565b60008061100e83611aa3565b9050600073ffffffffffffffffffffffffffffffffffffffff168173ffffffffffffffffffffffffffffffffffffffff160361108157826040517f7e2732890000000000000000000000000000000000000000000000000000000081526004016110789190612273565b60405180910390fd5b80915050919050565b600080611095610fda565b905080600401600084815260200190815260200160002060009054906101000a900473ffffffffffffffffffffffffffffffffffffffff16915050919050565b600033905090565b6110ea8383836001611aee565b505050565b6000806110fa610fda565b9050600061110785611aa3565b9050600073ffffffffffffffffffffffffffffffffffffffff168473ffffffffffffffffffffffffffffffffffffffff161461114957611148818587611cc2565b5b600073ffffffffffffffffffffffffffffffffffffffff168173ffffffffffffffffffffffffffffffffffffffff16146111dc5761118b600086600080611aee565b60018260030160008373ffffffffffffffffffffffffffffffffffffffff1673ffffffffffffffffffffffffffffffffffffffff168152602001908152602001600020600082825403925050819055505b600073ffffffffffffffffffffffffffffffffffffffff168673ffffffffffffffffffffffffffffffffffffffff16146112615760018260030160008873ffffffffffffffffffffffffffffffffffffffff1673ffffffffffffffffffffffffffffffffffffffff168152602001908152602001600020600082825401925050819055505b8582600201600087815260200190815260200160002060006101000a81548173ffffffffffffffffffffffffffffffffffffffff021916908373ffffffffffffffffffffffffffffffffffffffff160217905550848673ffffffffffffffffffffffffffffffffffffffff168273ffffffffffffffffffffffffffffffffffffffff167fddf252ad1be2c89b69c2b068fc378daa952ba7f163c4a11628f55a4df523b3ef60405160405180910390a480925050509392505050565b6113246110d5565b73ffffffffffffffffffffffffffffffffffffffff16611342610a19565b73ffffffffffffffffffffffffffffffffffffffff16146113a1576113656110d5565b6040517f118cdaa700000000000000000000000000000000000000000000000000000000815260040161139891906123da565b60405180910390fd5b565b60006113ad6114d6565b905060008160000160009054906101000a900473ffffffffffffffffffffffffffffffffffffffff169050828260000160006101000a81548173ffffffffffffffffffffffffffffffffffffffff021916908373ffffffffffffffffffffffffffffffffffffffff1602179055508273ffffffffffffffffffffffffffffffffffffffff168173ffffffffffffffffffffffffffffffffffffffff167f8be0079c531659141344cd1fd0a4f28419497f9722a3daafe3b4186f6b6457e060405160405180910390a3505050565b60007ff0c57e16840df040f15088dc2f81fe391c3923bec73e23a9662efc9c229c6a00905090565b6114aa611d86565b565b6114b4611d86565b6114be8282611dc6565b5050565b6114ca611d86565b6114d381611e03565b50565b60007f9016d09d72d40fdae2fd8ceac6b6234c7706214fd39c1cd1e609a0528c199300905090565b6000611508610fda565b9050600073ffffffffffffffffffffffffffffffffffffffff168373ffffffffffffffffffffffffffffffffffffffff160361157b57826040517f5b08ba1800000000000000000000000000000000000000000000000000000000815260040161157291906123da565b60405180910390fd5b818160050160008673ffffffffffffffffffffffffffffffffffffffff1673ffffffffffffffffffffffffffffffffffffffff16815260200190815260200160002060008573ffffffffffffffffffffffffffffffffffffffff1673ffffffffffffffffffffffffffffffffffffffff16815260200190815260200160002060006101000a81548160ff0219169083151502179055508273ffffffffffffffffffffffffffffffffffffffff168473ffffffffffffffffffffffffffffffffffffffff167f17307eab39ab6107e8899845ad3d59bd9653f200f220920489ca2b5937696c318460405161166e919061223f565b60405180910390a350505050565b60008373ffffffffffffffffffffffffffffffffffffffff163b1115611826578273ffffffffffffffffffffffffffffffffffffffff1663150b7a02868685856040518563ffffffff1660e01b81526004016116db9493929190612b59565b6020604051808303816000875af192505050801561171757506040513d601f19601f820116820180604052508101906117149190612bba565b60015b61179b573d8060008114611747576040519150601f19603f3d011682016040523d82523d6000602084013e61174c565b606091505b50600081510361179357836040517f64a0ae9200000000000000000000000000000000000000000000000000000000815260040161178a91906123da565b60405180910390fd5b805181602001fd5b63150b7a0260e01b7bffffffffffffffffffffffffffffffffffffffffffffffffffffffff1916817bffffffffffffffffffffffffffffffffffffffffffffffffffffffff19161461182457836040517f64a0ae9200000000000000000000000000000000000000000000000000000000815260040161181b91906123da565b60405180910390fd5b505b5050505050565b60007f0542a41881ee128a365a727b282c86fa859579490b9bb45aab8503648c8e7900905090565b606060405180602001604052806000815250905090565b606061187782611002565b506000611882611855565b905060008151116118a257604051806020016040528060008152506118cd565b806118ac84611e89565b6040516020016118bd929190612a69565b6040516020818303038152906040525b915050919050565b600073ffffffffffffffffffffffffffffffffffffffff168273ffffffffffffffffffffffffffffffffffffffff16036119475760006040517f64a0ae9200000000000000000000000000000000000000000000000000000000815260040161193e91906123da565b60405180910390fd5b6000611955838360006110ef565b9050600073ffffffffffffffffffffffffffffffffffffffff168173ffffffffffffffffffffffffffffffffffffffff16146119c95760006040517f73c6ac6e0000000000000000000000000000000000000000000000000000000081526004016119c091906123da565b60405180910390fd5b505050565b60006119d861182d565b90508181600001600085815260200190815260200160002090816119fc9190612d89565b507ff8e1a15aba9398e019f0b49df1a4fde98ee17ae345cb5f6b5e2c27f5033e8ce783604051611a2c9190612273565b60405180910390a1505050565b60007f01ffc9a7000000000000000000000000000000000000000000000000000000007bffffffffffffffffffffffffffffffffffffffffffffffffffffffff1916827bffffffffffffffffffffffffffffffffffffffffffffffffffffffff1916149050919050565b600080611aae610fda565b905080600201600084815260200190815260200160002060009054906101000a900473ffffffffffffffffffffffffffffffffffffffff16915050919050565b6000611af8610fda565b90508180611b335750600073ffffffffffffffffffffffffffffffffffffffff168373ffffffffffffffffffffffffffffffffffffffff1614155b15611c67576000611b4385611002565b9050600073ffffffffffffffffffffffffffffffffffffffff168473ffffffffffffffffffffffffffffffffffffffff1614158015611bae57508373ffffffffffffffffffffffffffffffffffffffff168173ffffffffffffffffffffffffffffffffffffffff1614155b8015611bc15750611bbf8185610d25565b155b15611c0357836040517fa9fbf51f000000000000000000000000000000000000000000000000000000008152600401611bfa91906123da565b60405180910390fd5b8215611c6557848673ffffffffffffffffffffffffffffffffffffffff168273ffffffffffffffffffffffffffffffffffffffff167f8c5be1e5ebec7d5bd14f71427d1e84f3dd0314c0f7b2291e5b200ac8c7c3b92560405160405180910390a45b505b8481600401600086815260200190815260200160002060006101000a81548173ffffffffffffffffffffffffffffffffffffffff021916908373ffffffffffffffffffffffffffffffffffffffff1602179055505050505050565b611ccd838383611f57565b611d8157600073ffffffffffffffffffffffffffffffffffffffff168373ffffffffffffffffffffffffffffffffffffffff1603611d4257806040517f7e273289000000000000000000000000000000000000000000000000000000008152600401611d399190612273565b60405180910390fd5b81816040517f177e802f000000000000000000000000000000000000000000000000000000008152600401611d78929190612e5b565b60405180910390fd5b505050565b611d8e612018565b611dc4576040517fd7e6bcf800000000000000000000000000000000000000000000000000000000815260040160405180910390fd5b565b611dce611d86565b6000611dd8610fda565b905082816000019081611deb9190612d89565b5081816001019081611dfd9190612d89565b50505050565b611e0b611d86565b600073ffffffffffffffffffffffffffffffffffffffff168173ffffffffffffffffffffffffffffffffffffffff1603611e7d5760006040517f1e4fbdf7000000000000000000000000000000000000000000000000000000008152600401611e7491906123da565b60405180910390fd5b611e86816113a3565b50565b606060006001611e9884612038565b01905060008167ffffffffffffffff811115611eb757611eb6612557565b5b6040519080825280601f01601f191660200182016040528015611ee95781602001600182028036833780820191505090505b509050600082602001820190505b600115611f4c578080600190039150507f3031323334353637383961626364656600000000000000000000000000000000600a86061a8153600a8581611f4057611f3f612e84565b5b04945060008503611ef7575b819350505050919050565b60008073ffffffffffffffffffffffffffffffffffffffff168373ffffffffffffffffffffffffffffffffffffffff161415801561200f57508273ffffffffffffffffffffffffffffffffffffffff168473ffffffffffffffffffffffffffffffffffffffff161480611fd05750611fcf8484610d25565b5b8061200e57508273ffffffffffffffffffffffffffffffffffffffff16611ff68361108a565b73ffffffffffffffffffffffffffffffffffffffff16145b5b90509392505050565b600061202261147a565b60000160089054906101000a900460ff16905090565b600080600090507a184f03e93ff9f4daa797ed6e38ed64bf6a1f0100000000000000008310612096577a184f03e93ff9f4daa797ed6e38ed64bf6a1f010000000000000000838161208c5761208b612e84565b5b0492506040810190505b6d04ee2d6d415b85acef810000000083106120d3576d04ee2d6d415b85acef810000000083816120c9576120c8612e84565b5b0492506020810190505b662386f26fc10000831061210257662386f26fc1000083816120f8576120f7612e84565b5b0492506010810190505b6305f5e100831061212b576305f5e100838161212157612120612e84565b5b0492506008810190505b612710831061215057612710838161214657612145612e84565b5b0492506004810190505b60648310612173576064838161216957612168612e84565b5b0492506002810190505b600a8310612182576001810190505b80915050919050565b6000604051905090565b600080fd5b600080fd5b60007fffffffff0000000000000000000000000000000000000000000000000000000082169050919050565b6121d48161219f565b81146121df57600080fd5b50565b6000813590506121f1816121cb565b92915050565b60006020828403121561220d5761220c612195565b5b600061221b848285016121e2565b91505092915050565b60008115159050919050565b61223981612224565b82525050565b60006020820190506122546000830184612230565b92915050565b6000819050919050565b61226d8161225a565b82525050565b60006020820190506122886000830184612264565b92915050565b600081519050919050565b600082825260208201905092915050565b60005b838110156122c85780820151818401526020810190506122ad565b60008484015250505050565b6000601f19601f8301169050919050565b60006122f08261228e565b6122fa8185612299565b935061230a8185602086016122aa565b612313816122d4565b840191505092915050565b6000602082019050818103600083015261233881846122e5565b905092915050565b6123498161225a565b811461235457600080fd5b50565b60008135905061236681612340565b92915050565b60006020828403121561238257612381612195565b5b600061239084828501612357565b91505092915050565b600073ffffffffffffffffffffffffffffffffffffffff82169050919050565b60006123c482612399565b9050919050565b6123d4816123b9565b82525050565b60006020820190506123ef60008301846123cb565b92915050565b6123fe816123b9565b811461240957600080fd5b50565b60008135905061241b816123f5565b92915050565b6000806040838503121561243857612437612195565b5b60006124468582860161240c565b925050602061245785828601612357565b9150509250929050565b60008060006060848603121561247a57612479612195565b5b60006124888682870161240c565b93505060206124998682870161240c565b92505060406124aa86828701612357565b9150509250925092565b6000602082840312156124ca576124c9612195565b5b60006124d88482850161240c565b91505092915050565b6124ea81612224565b81146124f557600080fd5b50565b600081359050612507816124e1565b92915050565b6000806040838503121561252457612523612195565b5b60006125328582860161240c565b9250506020612543858286016124f8565b9150509250929050565b600080fd5b600080fd5b7f4e487b7100000000000000000000000000000000000000000000000000000000600052604160045260246000fd5b61258f826122d4565b810181811067ffffffffffffffff821117156125ae576125ad612557565b5b80604052505050565b60006125c161218b565b90506125cd8282612586565b919050565b600067ffffffffffffffff8211156125ed576125ec612557565b5b6125f6826122d4565b9050602081019050919050565b82818337600083830152505050565b6000612625612620846125d2565b6125b7565b90508281526020810184848401111561264157612640612552565b5b61264c848285612603565b509392505050565b600082601f8301126126695761266861254d565b5b8135612679848260208601612612565b91505092915050565b6000806000806080858703121561269c5761269b612195565b5b60006126aa8782880161240c565b94505060206126bb8782880161240c565b93505060406126cc87828801612357565b925050606085013567ffffffffffffffff8111156126ed576126ec61219a565b5b6126f987828801612654565b91505092959194509250565b600081519050919050565b600082825260208201905092915050565b6000819050602082019050919050565b61273a8161225a565b82525050565b600061274c8383612731565b60208301905092915050565b6000602082019050919050565b600061277082612705565b61277a8185612710565b935061278583612721565b8060005b838110156127b657815161279d8882612740565b97506127a883612758565b925050600181019050612789565b5085935050505092915050565b600060208201905081810360008301526127dd8184612765565b905092915050565b600080604083850312156127fc576127fb612195565b5b600061280a8582860161240c565b925050602061281b8582860161240c565b9150509250929050565b600067ffffffffffffffff8211156128405761283f612557565b5b612849826122d4565b9050602081019050919050565b600061286961286484612825565b6125b7565b90508281526020810184848401111561288557612884612552565b5b612890848285612603565b509392505050565b600082601f8301126128ad576128ac61254d565b5b81356128bd848260208601612856565b91505092915050565b600080604083850312156128dd576128dc612195565b5b60006128eb8582860161240c565b925050602083013567ffffffffffffffff81111561290c5761290b61219a565b5b61291885828601612898565b9150509250929050565b7f4e487b7100000000000000000000000000000000000000000000000000000000600052602260045260246000fd5b6000600282049050600182168061296957607f821691505b60208210810361297c5761297b612922565b5b50919050565b600060608201905061299760008301866123cb565b6129a46020830185612264565b6129b160408301846123cb565b949350505050565b6000819050919050565b600067ffffffffffffffff82169050919050565b6000819050919050565b60006129fc6129f76129f2846129b9565b6129d7565b6129c3565b9050919050565b612a0c816129e1565b82525050565b6000602082019050612a276000830184612a03565b92915050565b600081905092915050565b6000612a438261228e565b612a4d8185612a2d565b9350612a5d8185602086016122aa565b80840191505092915050565b6000612a758285612a38565b9150612a818284612a38565b91508190509392505050565b7f4e487b7100000000000000000000000000000000000000000000000000000000600052601160045260246000fd5b6000612ac78261225a565b91507fffffffffffffffffffffffffffffffffffffffffffffffffffffffffffffffff8203612af957612af8612a8d565b5b600182019050919050565b600081519050919050565b600082825260208201905092915050565b6000612b2b82612b04565b612b358185612b0f565b9350612b458185602086016122aa565b612b4e816122d4565b840191505092915050565b6000608082019050612b6e60008301876123cb565b612b7b60208301866123cb565b612b886040830185612264565b8181036060830152612b9a8184612b20565b905095945050505050565b600081519050612bb4816121cb565b92915050565b600060208284031215612bd057612bcf612195565b5b6000612bde84828501612ba5565b91505092915050565b60008190508160005260206000209050919050565b60006020601f8301049050919050565b600082821b905092915050565b600060088302612c497fffffffffffffffffffffffffffffffffffffffffffffffffffffffffffffffff82612c0c565b612c538683612c0c565b95508019841693508086168417925050509392505050565b6000612c86612c81612c7c8461225a565b6129d7565b61225a565b9050919050565b6000819050919050565b612ca083612c6b565b612cb4612cac82612c8d565b848454612c19565b825550505050565b600090565b612cc9612cbc565b612cd4818484612c97565b505050565b5b81811015612cf857612ced600082612cc1565b600181019050612cda565b5050565b601f821115612d3d57612d0e81612be7565b612d1784612bfc565b81016020851015612d26578190505b612d3a612d3285612bfc565b830182612cd9565b50505b505050565b600082821c905092915050565b6000612d6060001984600802612d42565b1980831691505092915050565b6000612d798383612d4f565b9150826002028217905092915050565b612d928261228e565b67ffffffffffffffff811115612dab57612daa612557565b5b612db58254612951565b612dc0828285612cfc565b600060209050601f831160018114612df35760008415612de1578287015190505b612deb8582612d6d565b865550612e53565b601f198416612e0186612be7565b60005b82811015612e2957848901518255600182019150602085019450602081019050612e04565b86831015612e465784890151612e42601f891682612d4f565b8355505b6001600288020188555050505b505050505050565b6000604082019050612e7060008301856123cb565b612e7d6020830184612264565b9392505050565b7f4e487b7100000000000000000000000000000000000000000000000000000000600052601260045260246000fdfea26469706673582212203fb3f2a90539612edaacfed5962a5df8d7e0b9573ebedc2ecebb524cd73f3ba564736f6c634300081c0033",
  "linkReferences": {},
  "deployedLinkReferences": {}
}