{
  "_format": "hh-sol-artifact-1",
  "contractName": "MyNFTV2",
  "sourceName": "contracts/MyNFTV2.sol",
  "abi": [
    {
      "inputs": [
        {
          "internalType": "address",
          "name": "sender",
          "type": "address"
        },
        {
          "internalType": "uint256",
          "name": "tokenId",
          "type": "uint256"
        },
        {
          "internalType": "address",
          "name": "owner",
          "type": "address"
        }
      ],
      "name": "ERC721IncorrectOwner",
      "type": "error"
    },
    {
      "inputs": [
        {
          "internalType": "address",
          "name": "operator",
          "type": "address"
        },
        {
          "internalType": "uint256",
          "name": "tokenId",
          "type": "uint256"
        }
      ],
      "name": "ERC721InsufficientApproval",
      "type": "error"
    },
    {
      "inputs": [
        {
          "internalType": "address",
          "name": "approver",
          "type": "address"
        }
      ],
      "name": "ERC721InvalidApprover",
      "type": "error"
    },
    {
      "inputs": [
        {
          "internalType": "address",
          "name": "operator",
          "type": "address"
        }
      ],
      "name": "ERC721InvalidOperator",
      "type": "error"
    },
    {
      "inputs": [
        {
          "internalType": "address",
          "name": "owner",
          "type": "address"
        }
      ],
      "name": "ERC721InvalidOwner",
      "type": "error"
    },
    {
      "inputs": [
        {
          "internalType": "address",
          "name": "receiver",
          "type": "address"
        }
      ],
      "name": "ERC721InvalidReceiver",
      "type": "error"
    },
    {
      "inputs": [
        {
          "internalType": "address",
          "name": "sender",
          "type": "address"
        }
      ],
      "name": "ERC721InvalidSender",
      "type": "error"
    },
    {
      "inputs": [
        {
          "internalType": "uint256",
          "name": "tokenId",
          "type": "uint256"
        }
      ],
      "name": "ERC721NonexistentToken",
      "type": "error"
    },
    {
      "inputs": [],
      "name": "InvalidInitialization",
      "type": "error"
    },
    {
      "inputs": [],
      "name": "NotInitializing",
      "type": "error"
    },
    {
      "inputs": [
        {
          "internalType": "address",
          "name": "owner",
          "type": "address"
        }
      ],
      "name": "OwnableInvalidOwner",
      "type": "error"
    },
    {
      "inputs": [
        {
          "internalType": "address",
          "name": "account",
          "type": "address"
        }
      ],
      "name": "OwnableUnauthorizedAccount",
      "type": "error"
    },
    {
      "anonymous": false,
      "inputs": [
        {
          "indexed": true,
          "internalType": "address",
          "name": "owner",
          "type": "address"
        },
        {
          "indexed": true,
          "internalType": "address",
          "name": "approved",
          "type": "address"
        },
        {
          "indexed": true,
          "internalType": "uint256",
          "name": "tokenId",
          "type": "uint256"
        }
      ],
      "name": "Approval",
      "type": "event"
    },
    {
      "anonymous": false,
      "inputs": [
        {
          "indexed": true,
          "internalType": "address",
          "name": "owner",
          "type": "address"
        },
        {
          "indexed": true,
          "internalType": "address",
          "name": "operator",
          "type": "address"
        },
        {
          "indexed": false,
          "internalType": "bool",
          "name": "approved",
          "type": "bool"
        }
      ],
      "name": "ApprovalForAll",
      "type": "event"
    },
    {
      "anonymous": false,
      "inputs": [
        {
          "indexed": false,
          "internalType": "uint256",
          "name": "_fromTokenId",
          "type": "uint256"
        },
        {
          "indexed": false,
          "internalType": "uint256",
          "name": "_toTokenId",
          "type": "uint256"
        }
      ],
      "name": "BatchMetadataUpdate",
      "type": "event"
    },
    {
      "anonymous": false,
      "inputs": [
        {
          "indexed": false,
          "internalType": "uint64",
          "name": "version",
          "type": "uint64"
        }
      ],
      "name": "Initialized",
      "type": "event"
    },
    {
      "anonymous": false,
      "inputs": [
        {
          "indexed": false,
          "internalType": "uint256",
          "name": "_tokenId",
          "type": "uint256"
        }
      ],
      "name": "MetadataUpdate",
      "type": "event"
    },
    {
      "anonymous": false,
      "inputs": [
        {
          "indexed": true,
          "internalType": "address",
          "name": "previousOwner",
          "type": "address"
        },
        {
          "indexed": true,
          "internalType": "address",
          "name": "newOwner",
          "type": "address"
        }
      ],
      "name": "OwnershipTransferred",
      "type": "event"
    },
    {
      "anonymous": false,
      "inputs": [
        {
          "indexed": true,
          "internalType": "address",
          "name": "from",
          "type": "address"
        },
        {
          "indexed": true,
          "internalType": "address",
          "name": "to",
          "type": "address"
        },
        {
          "indexed": true,
          "internalType": "uint256",
          "name": "tokenId",
          "type": "uint256"
        }
      ],
      "name": "Transfer",
      "type": "event"
    },
    {
      "inputs": [
        {
          "internalType": "address",
          "name": "to",
          "type": "address"
        },
        {
          "internalType": "uint256",
          "name": "tokenId",
          "type": "uint256"
        }
      ],
      "name": "approve",
      "outputs": [],
      "stateMutability": "nonpayable",
      "type": "function"
    },
    {
      "inputs": [],
      "name": "author",
      "outputs": [
        {
          "internalType": "string",
          "name": "",
          "type": "string"
        }
      ],
      "stateMutability": "pure",
      "type": "function"
    },
    {
      "inputs": [
        {
          "internalType": "address",
          "name": "owner",
          "type": "address"
        }
      ],
      "name": "balanceOf",
      "outputs": [
        {
          "internalType": "uint256",
          "name": "",
          "type": "uint256"
        }
      ],
      "stateMutability": "view",
      "type": "function"
    },
    {
      "inputs": [
        {
          "internalType": "uint256",
          "name": "tokenId",
          "type": "uint256"
        }
      ],
      "name": "getApproved",
      "outputs": [
        {
          "internalType": "address",
          "name": "",
          "type": "address"
        }
      ],
      "stateMutability": "view",
      "type": "function"
    },
    {
      "inputs": [],
      "name": "initialize",
      "outputs": [],
      "stateMutability": "nonpayable",
      "type": "function"
    },
    {
      "inputs": [
        {
          "internalType": "address",
          "name": "owner",
          "type": "address"
        },
        {
          "internalType": "address",
          "name": "operator",
          "type": "address"
        }
      ],
      "name": "isApprovedForAll",
      "outputs": [
        {
          "internalType": "bool",
          "name": "",
          "type": "bool"
        }
      ],
      "stateMutability": "view",
      "type": "function"
    },
    {
      "inputs": [
        {
          "internalType": "address",
          "name": "recipient",
          "type": "address"
        },
        {
          "internalType": "string",
          "name": "tokenURI",
          "type": "string"
        }
      ],
      "name": "mintNFT",
      "outputs": [
        {
          "internalType": "uint256",
          "name": "",
          "type": "uint256"
        }
      ],
      "stateMutability": "nonpayable",
      "type": "function"
    },
    {
      "inputs": [],
      "name": "name",
      "outputs": [
        {
          "internalType": "string",
          "name": "",
          "type": "string"
        }
      ],
      "stateMutability": "view",
      "type": "function"
    },
    {
      "inputs": [],
      "name": "owner",
      "outputs": [
        {
          "internalType": "address",
          "name": "",
          "type": "address"
        }
      ],
      "stateMutability": "view",
      "type": "function"
    },
    {
      "inputs": [
        {
          "internalType": "uint256",
          "name": "tokenId",
          "type": "uint256"
        }
      ],
      "name": "ownerOf",
      "outputs": [
        {
          "internalType": "address",
          "name": "",
          "type": "address"
        }
      ],
      "stateMutability": "view",
      "type": "function"
    },
    {
      "inputs": [],
      "name": "renounceOwnership",
      "outputs": [],
      "stateMutability": "nonpayable",
      "type": "function"
    },
    {
      "inputs": [
        {
          "internalType": "address",
          "name": "from",
          "type": "address"
        },
        {
          "internalType": "address",
          "name": "to",
          "type": "address"
        },
        {
          "internalType": "uint256",
          "name": "tokenId",
          "type": "uint256"
        }
      ],
      "name": "safeTransferFrom",
      "outputs": [],
      "stateMutability": "nonpayable",
      "type": "function"
    },
    {
      "inputs": [
        {
          "internalType": "address",
          "name": "from",
          "type": "address"
        },
        {
          "internalType": "address",
          "name": "to",
          "type": "address"
        },
        {
          "internalType": "uint256",
          "name": "tokenId",
          "type": "uint256"
        },
        {
          "internalType": "bytes",
          "name": "data",
          "type": "bytes"
        }
      ],
      "name": "safeTransferFrom",
      "outputs": [],
      "stateMutability": "nonpayable",
      "type": "function"
    },
    {
      "inputs": [
        {
          "internalType": "address",
          "name": "operator",
          "type": "address"
        },
        {
          "internalType": "bool",
          "name": "approved",
          "type": "bool"
        }
      ],
      "name": "setApprovalForAll",
      "outputs": [],
      "stateMutability": "nonpayable",
      "type": "function"
    },
    {
      "inputs": [
        {
          "internalType": "bytes4",
          "name": "interfaceId",
          "type": "bytes4"
        }
      ],
      "name": "supportsInterface",
      "outputs": [
        {
          "internalType": "bool",
          "name": "",
          "type": "bool"
        }
      ],
      "stateMutability": "view",
      "type": "function"
    },
    {
      "inputs": [],
      "name": "symbol",
      "outputs": [
        {
          "internalType": "string",
          "name": "",
          "type": "string"
        }
      ],
      "stateMutability": "view",
      "type": "function"
    },
    {
      "inputs": [
        {
          "internalType": "uint256",
          "name": "tokenId",
          "type": "uint256"
        }
      ],
      "name": "tokenURI",
      "outputs": [
        {
          "internalType": "string",
          "name": "",
          "type": "string"
        }
      ],
      "stateMutability": "view",
      "type": "function"
    },
    {
      "inputs": [
        {
          "internalType": "address",
          "name": "from",
          "type": "address"
        },
        {
          "internalType": "address",
          "name": "to",
          "type": "address"
        },
        {
          "internalType": "uint256",
          "name": "tokenId",
          "type": "uint256"
        }
      ],
      "name": "transferFrom",
      "outputs": [],
      "stateMutability": "nonpayable",
      "type": "function"
    },
    {
      "inputs": [
        {
          "internalType": "address",
          "name": "newOwner",
          "type": "address"
        }
      ],
      "name": "transferOwnership",
      "outputs": [],
      "stateMutability": "nonpayable",
      "type": "function"
    },
    {
      "inputs": [],
      "name": "version",
      "outputs": [
        {
          "internalType": "string",
          "name": "",
          "type": "string"
        }
      ],
      "stateMutability": "pure",
      "type": "function"
    }
  ],
  "bytecode": "0x6080604052348015600f57600080fd5b50612c408061001f6000396000f3fe608060405234801561001057600080fd5b506004361061012c5760003560e01c80638129fc1c116100ad578063b88d4fde11610071578063b88d4fde1461030b578063c87b56dd14610327578063e985e9c514610357578063eacabe1414610387578063f2fde38b146103b75761012c565b80638129fc1c1461028b5780638da5cb5b1461029557806395d89b41146102b3578063a22cb465146102d1578063a6c3e6b9146102ed5761012c565b806342842e0e116100f457806342842e0e146101e757806354fd4d50146102035780636352211e1461022157806370a0823114610251578063715018a6146102815761012c565b806301ffc9a71461013157806306fdde0314610161578063081812fc1461017f578063095ea7b3146101af57806323b872dd146101cb575b600080fd5b61014b6004803603810190610146919061202e565b6103d3565b6040516101589190612076565b60405180910390f35b610169610434565b6040516101769190612121565b60405180910390f35b61019960048036038101906101949190612179565b6104d5565b6040516101a691906121e7565b60405180910390f35b6101c960048036038101906101c4919061222e565b6104f1565b005b6101e560048036038101906101e0919061226e565b610507565b005b61020160048036038101906101fc919061226e565b610609565b005b61020b610629565b6040516102189190612121565b60405180910390f35b61023b60048036038101906102369190612179565b610666565b60405161024891906121e7565b60405180910390f35b61026b600480360381019061026691906122c1565b610678565b60405161027891906122fd565b60405180910390f35b610289610741565b005b610293610755565b005b61029d610957565b6040516102aa91906121e7565b60405180910390f35b6102bb61098f565b6040516102c89190612121565b60405180910390f35b6102eb60048036038101906102e69190612344565b610a30565b005b6102f5610a46565b6040516103029190612121565b60405180910390f35b610325600480360381019061032091906124b9565b610a83565b005b610341600480360381019061033c9190612179565b610aa8565b60405161034e9190612121565b60405180910390f35b610371600480360381019061036c919061253c565b610bcc565b60405161037e9190612076565b60405180910390f35b6103a1600480360381019061039c919061261d565b610c6e565b6040516103ae91906122fd565b60405180910390f35b6103d160048036038101906103cc91906122c1565b610cb3565b005b6000634906490660e01b7bffffffffffffffffffffffffffffffffffffffffffffffffffffffff1916827bffffffffffffffffffffffffffffffffffffffffffffffffffffffff1916148061042d575061042c82610d39565b5b9050919050565b60606000610440610e1b565b9050806000018054610451906126a8565b80601f016020809104026020016040519081016040528092919081815260200182805461047d906126a8565b80156104ca5780601f1061049f576101008083540402835291602001916104ca565b820191906000526020600020905b8154815290600101906020018083116104ad57829003601f168201915b505050505091505090565b60006104e082610e43565b506104ea82610ecb565b9050919050565b61050382826104fe610f16565b610f1e565b5050565b600073ffffffffffffffffffffffffffffffffffffffff168273ffffffffffffffffffffffffffffffffffffffff16036105795760006040517f64a0ae9200000000000000000000000000000000000000000000000000000000815260040161057091906121e7565b60405180910390fd5b600061058d8383610588610f16565b610f30565b90508373ffffffffffffffffffffffffffffffffffffffff168173ffffffffffffffffffffffffffffffffffffffff1614610603578382826040517f64283d7b0000000000000000000000000000000000000000000000000000000081526004016105fa939291906126d9565b60405180910390fd5b50505050565b61062483838360405180602001604052806000815250610a83565b505050565b60606040518060400160405280600581526020017f312e302e31000000000000000000000000000000000000000000000000000000815250905090565b600061067182610e43565b9050919050565b600080610683610e1b565b9050600073ffffffffffffffffffffffffffffffffffffffff168373ffffffffffffffffffffffffffffffffffffffff16036106f75760006040517f89c62b640000000000000000000000000000000000000000000000000000000081526004016106ee91906121e7565b60405180910390fd5b8060030160008473ffffffffffffffffffffffffffffffffffffffff1673ffffffffffffffffffffffffffffffffffffffff16815260200190815260200160002054915050919050565b61074961115d565b61075360006111e4565b565b600061075f6112bb565b905060008160000160089054906101000a900460ff1615905060008260000160009054906101000a900467ffffffffffffffff1690506000808267ffffffffffffffff161480156107ad5750825b9050600060018367ffffffffffffffff161480156107e2575060003073ffffffffffffffffffffffffffffffffffffffff163b145b9050811580156107f0575080155b15610827576040517ff92ee8a900000000000000000000000000000000000000000000000000000000815260040160405180910390fd5b60018560000160006101000a81548167ffffffffffffffff021916908367ffffffffffffffff16021790555083156108775760018560000160086101000a81548160ff0219169083151502179055505b6108eb6040518060400160405280600581526020017f4d794e46540000000000000000000000000000000000000000000000000000008152506040518060400160405280600681526020017f596f6f4e465400000000000000000000000000000000000000000000000000008152506112e3565b6108f4336112f9565b83156109505760008560000160086101000a81548160ff0219169083151502179055507fc7f505b2f371ae2175ee4913f4499e1f2633a7b5936321eed1cdaeb6115181d260016040516109479190612769565b60405180910390a15b5050505050565b60008061096261130d565b90508060000160009054906101000a900473ffffffffffffffffffffffffffffffffffffffff1691505090565b6060600061099b610e1b565b90508060010180546109ac906126a8565b80601f01602080910402602001604051908101604052809291908181526020018280546109d8906126a8565b8015610a255780601f106109fa57610100808354040283529160200191610a25565b820191906000526020600020905b815481529060010190602001808311610a0857829003601f168201915b505050505091505090565b610a42610a3b610f16565b8383611335565b5050565b60606040518060400160405280600381526020017f5942570000000000000000000000000000000000000000000000000000000000815250905090565b610a8e848484610507565b610aa2610a99610f16565b858585856114b3565b50505050565b60606000610ab4611664565b9050610abf83610e43565b5060008160000160008581526020019081526020016000208054610ae2906126a8565b80601f0160208091040260200160405190810160405280929190818152602001828054610b0e906126a8565b8015610b5b5780601f10610b3057610100808354040283529160200191610b5b565b820191906000526020600020905b815481529060010190602001808311610b3e57829003601f168201915b505050505090506000610b6c61168c565b90506000815103610b8257819350505050610bc7565b600082511115610bb8578082604051602001610b9f9291906127c0565b6040516020818303038152906040529350505050610bc7565b610bc1856116a3565b93505050505b919050565b600080610bd7610e1b565b90508060050160008573ffffffffffffffffffffffffffffffffffffffff1673ffffffffffffffffffffffffffffffffffffffff16815260200190815260200160002060008473ffffffffffffffffffffffffffffffffffffffff1673ffffffffffffffffffffffffffffffffffffffff16815260200190815260200160002060009054906101000a900460ff1691505092915050565b6000610c7861115d565b600080815480929190610c8a90612813565b9190505550600080549050610c9f848261170c565b610ca98184611805565b8091505092915050565b610cbb61115d565b600073ffffffffffffffffffffffffffffffffffffffff168173ffffffffffffffffffffffffffffffffffffffff1603610d2d5760006040517f1e4fbdf7000000000000000000000000000000000000000000000000000000008152600401610d2491906121e7565b60405180910390fd5b610d36816111e4565b50565b60007f80ac58cd000000000000000000000000000000000000000000000000000000007bffffffffffffffffffffffffffffffffffffffffffffffffffffffff1916827bffffffffffffffffffffffffffffffffffffffffffffffffffffffff19161480610e0457507f5b5e139f000000000000000000000000000000000000000000000000000000007bffffffffffffffffffffffffffffffffffffffffffffffffffffffff1916827bffffffffffffffffffffffffffffffffffffffffffffffffffffffff1916145b80610e145750610e1382611870565b5b9050919050565b60007f80bb2b638cc20bc4d0a60d66940f3ab4a00c1d7b313497ca82fb0b4ab0079300905090565b600080610e4f836118da565b9050600073ffffffffffffffffffffffffffffffffffffffff168173ffffffffffffffffffffffffffffffffffffffff1603610ec257826040517f7e273289000000000000000000000000000000000000000000000000000000008152600401610eb991906122fd565b60405180910390fd5b80915050919050565b600080610ed6610e1b565b905080600401600084815260200190815260200160002060009054906101000a900473ffffffffffffffffffffffffffffffffffffffff16915050919050565b600033905090565b610f2b8383836001611925565b505050565b600080610f3b610e1b565b90506000610f48856118da565b9050600073ffffffffffffffffffffffffffffffffffffffff168473ffffffffffffffffffffffffffffffffffffffff1614610f8a57610f89818587611af9565b5b600073ffffffffffffffffffffffffffffffffffffffff168173ffffffffffffffffffffffffffffffffffffffff161461101d57610fcc600086600080611925565b60018260030160008373ffffffffffffffffffffffffffffffffffffffff1673ffffffffffffffffffffffffffffffffffffffff168152602001908152602001600020600082825403925050819055505b600073ffffffffffffffffffffffffffffffffffffffff168673ffffffffffffffffffffffffffffffffffffffff16146110a25760018260030160008873ffffffffffffffffffffffffffffffffffffffff1673ffffffffffffffffffffffffffffffffffffffff168152602001908152602001600020600082825401925050819055505b8582600201600087815260200190815260200160002060006101000a81548173ffffffffffffffffffffffffffffffffffffffff021916908373ffffffffffffffffffffffffffffffffffffffff160217905550848673ffffffffffffffffffffffffffffffffffffffff168273ffffffffffffffffffffffffffffffffffffffff167fddf252ad1be2c89b69c2b068fc378daa952ba7f163c4a11628f55a4df523b3ef60405160405180910390a480925050509392505050565b611165610f16565b73ffffffffffffffffffffffffffffffffffffffff16611183610957565b73ffffffffffffffffffffffffffffffffffffffff16146111e2576111a6610f16565b6040517f118cdaa70000000000000000000000000000000000000000000000000000000081526004016111d991906121e7565b60405180910390fd5b565b60006111ee61130d565b905060008160000160009054906101000a900473ffffffffffffffffffffffffffffffffffffffff169050828260000160006101000a81548173ffffffffffffffffffffffffffffffffffffffff021916908373ffffffffffffffffffffffffffffffffffffffff1602179055508273ffffffffffffffffffffffffffffffffffffffff168173ffffffffffffffffffffffffffffffffffffffff167f8be0079c531659141344cd1fd0a4f28419497f9722a3daafe3b4186f6b6457e060405160405180910390a3505050565b60007ff0c57e16840df040f15088dc2f81fe391c3923bec73e23a9662efc9c229c6a00905090565b6112eb611bbd565b6112f58282611bfd565b5050565b611301611bbd565b61130a81611c3a565b50565b60007f9016d09d72d40fdae2fd8ceac6b6234c7706214fd39c1cd1e609a0528c199300905090565b600061133f610e1b565b9050600073ffffffffffffffffffffffffffffffffffffffff168373ffffffffffffffffffffffffffffffffffffffff16036113b257826040517f5b08ba180000000000000000000000000000000000000000000000000000000081526004016113a991906121e7565b60405180910390fd5b818160050160008673ffffffffffffffffffffffffffffffffffffffff1673ffffffffffffffffffffffffffffffffffffffff16815260200190815260200160002060008573ffffffffffffffffffffffffffffffffffffffff1673ffffffffffffffffffffffffffffffffffffffff16815260200190815260200160002060006101000a81548160ff0219169083151502179055508273ffffffffffffffffffffffffffffffffffffffff168473ffffffffffffffffffffffffffffffffffffffff167f17307eab39ab6107e8899845ad3d59bd9653f200f220920489ca2b5937696c31846040516114a59190612076565b60405180910390a350505050565b60008373ffffffffffffffffffffffffffffffffffffffff163b111561165d578273ffffffffffffffffffffffffffffffffffffffff1663150b7a02868685856040518563ffffffff1660e01b815260040161151294939291906128b0565b6020604051808303816000875af192505050801561154e57506040513d601f19601f8201168201806040525081019061154b9190612911565b60015b6115d2573d806000811461157e576040519150601f19603f3d011682016040523d82523d6000602084013e611583565b606091505b5060008151036115ca57836040517f64a0ae920000000000000000000000000000000000000000000000000000000081526004016115c191906121e7565b60405180910390fd5b805181602001fd5b63150b7a0260e01b7bffffffffffffffffffffffffffffffffffffffffffffffffffffffff1916817bffffffffffffffffffffffffffffffffffffffffffffffffffffffff19161461165b57836040517f64a0ae9200000000000000000000000000000000000000000000000000000000815260040161165291906121e7565b60405180910390fd5b505b5050505050565b60007f0542a41881ee128a365a727b282c86fa859579490b9bb45aab8503648c8e7900905090565b606060405180602001604052806000815250905090565b60606116ae82610e43565b5060006116b961168c565b905060008151116116d95760405180602001604052806000815250611704565b806116e384611cc0565b6040516020016116f49291906127c0565b6040516020818303038152906040525b915050919050565b600073ffffffffffffffffffffffffffffffffffffffff168273ffffffffffffffffffffffffffffffffffffffff160361177e5760006040517f64a0ae9200000000000000000000000000000000000000000000000000000000815260040161177591906121e7565b60405180910390fd5b600061178c83836000610f30565b9050600073ffffffffffffffffffffffffffffffffffffffff168173ffffffffffffffffffffffffffffffffffffffff16146118005760006040517f73c6ac6e0000000000000000000000000000000000000000000000000000000081526004016117f791906121e7565b60405180910390fd5b505050565b600061180f611664565b90508181600001600085815260200190815260200160002090816118339190612ae0565b507ff8e1a15aba9398e019f0b49df1a4fde98ee17ae345cb5f6b5e2c27f5033e8ce78360405161186391906122fd565b60405180910390a1505050565b60007f01ffc9a7000000000000000000000000000000000000000000000000000000007bffffffffffffffffffffffffffffffffffffffffffffffffffffffff1916827bffffffffffffffffffffffffffffffffffffffffffffffffffffffff1916149050919050565b6000806118e5610e1b565b905080600201600084815260200190815260200160002060009054906101000a900473ffffffffffffffffffffffffffffffffffffffff16915050919050565b600061192f610e1b565b9050818061196a5750600073ffffffffffffffffffffffffffffffffffffffff168373ffffffffffffffffffffffffffffffffffffffff1614155b15611a9e57600061197a85610e43565b9050600073ffffffffffffffffffffffffffffffffffffffff168473ffffffffffffffffffffffffffffffffffffffff16141580156119e557508373ffffffffffffffffffffffffffffffffffffffff168173ffffffffffffffffffffffffffffffffffffffff1614155b80156119f857506119f68185610bcc565b155b15611a3a57836040517fa9fbf51f000000000000000000000000000000000000000000000000000000008152600401611a3191906121e7565b60405180910390fd5b8215611a9c57848673ffffffffffffffffffffffffffffffffffffffff168273ffffffffffffffffffffffffffffffffffffffff167f8c5be1e5ebec7d5bd14f71427d1e84f3dd0314c0f7b2291e5b200ac8c7c3b92560405160405180910390a45b505b8481600401600086815260200190815260200160002060006101000a81548173ffffffffffffffffffffffffffffffffffffffff021916908373ffffffffffffffffffffffffffffffffffffffff1602179055505050505050565b611b04838383611d8e565b611bb857600073ffffffffffffffffffffffffffffffffffffffff168373ffffffffffffffffffffffffffffffffffffffff1603611b7957806040517f7e273289000000000000000000000000000000000000000000000000000000008152600401611b7091906122fd565b60405180910390fd5b81816040517f177e802f000000000000000000000000000000000000000000000000000000008152600401611baf929190612bb2565b60405180910390fd5b505050565b611bc5611e4f565b611bfb576040517fd7e6bcf800000000000000000000000000000000000000000000000000000000815260040160405180910390fd5b565b611c05611bbd565b6000611c0f610e1b565b905082816000019081611c229190612ae0565b5081816001019081611c349190612ae0565b50505050565b611c42611bbd565b600073ffffffffffffffffffffffffffffffffffffffff168173ffffffffffffffffffffffffffffffffffffffff1603611cb45760006040517f1e4fbdf7000000000000000000000000000000000000000000000000000000008152600401611cab91906121e7565b60405180910390fd5b611cbd816111e4565b50565b606060006001611ccf84611e6f565b01905060008167ffffffffffffffff811115611cee57611ced61238e565b5b6040519080825280601f01601f191660200182016040528015611d205781602001600182028036833780820191505090505b509050600082602001820190505b600115611d83578080600190039150507f3031323334353637383961626364656600000000000000000000000000000000600a86061a8153600a8581611d7757611d76612bdb565b5b04945060008503611d2e575b819350505050919050565b60008073ffffffffffffffffffffffffffffffffffffffff168373ffffffffffffffffffffffffffffffffffffffff1614158015611e4657508273ffffffffffffffffffffffffffffffffffffffff168473ffffffffffffffffffffffffffffffffffffffff161480611e075750611e068484610bcc565b5b80611e4557508273ffffffffffffffffffffffffffffffffffffffff16611e2d83610ecb565b73ffffffffffffffffffffffffffffffffffffffff16145b5b90509392505050565b6000611e596112bb565b60000160089054906101000a900460ff16905090565b600080600090507a184f03e93ff9f4daa797ed6e38ed64bf6a1f0100000000000000008310611ecd577a184f03e93ff9f4daa797ed6e38ed64bf6a1f0100000000000000008381611ec357611ec2612bdb565b5b0492506040810190505b6d04ee2d6d415b85acef81000000008310611f0a576d04ee2d6d415b85acef81000000008381611f0057611eff612bdb565b5b0492506020810190505b662386f26fc100008310611f3957662386f26fc100008381611f2f57611f2e612bdb565b5b0492506010810190505b6305f5e1008310611f62576305f5e1008381611f5857611f57612bdb565b5b0492506008810190505b6127108310611f87576127108381611f7d57611f7c612bdb565b5b0492506004810190505b60648310611faa5760648381611fa057611f9f612bdb565b5b0492506002810190505b600a8310611fb9576001810190505b80915050919050565b6000604051905090565b600080fd5b600080fd5b60007fffffffff0000000000000000000000000000000000000000000000000000000082169050919050565b61200b81611fd6565b811461201657600080fd5b50565b60008135905061202881612002565b92915050565b60006020828403121561204457612043611fcc565b5b600061205284828501612019565b91505092915050565b60008115159050919050565b6120708161205b565b82525050565b600060208201905061208b6000830184612067565b92915050565b600081519050919050565b600082825260208201905092915050565b60005b838110156120cb5780820151818401526020810190506120b0565b60008484015250505050565b6000601f19601f8301169050919050565b60006120f382612091565b6120fd818561209c565b935061210d8185602086016120ad565b612116816120d7565b840191505092915050565b6000602082019050818103600083015261213b81846120e8565b905092915050565b6000819050919050565b61215681612143565b811461216157600080fd5b50565b6000813590506121738161214d565b92915050565b60006020828403121561218f5761218e611fcc565b5b600061219d84828501612164565b91505092915050565b600073ffffffffffffffffffffffffffffffffffffffff82169050919050565b60006121d1826121a6565b9050919050565b6121e1816121c6565b82525050565b60006020820190506121fc60008301846121d8565b92915050565b61220b816121c6565b811461221657600080fd5b50565b60008135905061222881612202565b92915050565b6000806040838503121561224557612244611fcc565b5b600061225385828601612219565b925050602061226485828601612164565b9150509250929050565b60008060006060848603121561228757612286611fcc565b5b600061229586828701612219565b93505060206122a686828701612219565b92505060406122b786828701612164565b9150509250925092565b6000602082840312156122d7576122d6611fcc565b5b60006122e584828501612219565b91505092915050565b6122f781612143565b82525050565b600060208201905061231260008301846122ee565b92915050565b6123218161205b565b811461232c57600080fd5b50565b60008135905061233e81612318565b92915050565b6000806040838503121561235b5761235a611fcc565b5b600061236985828601612219565b925050602061237a8582860161232f565b9150509250929050565b600080fd5b600080fd5b7f4e487b7100000000000000000000000000000000000000000000000000000000600052604160045260246000fd5b6123c6826120d7565b810181811067ffffffffffffffff821117156123e5576123e461238e565b5b80604052505050565b60006123f8611fc2565b905061240482826123bd565b919050565b600067ffffffffffffffff8211156124245761242361238e565b5b61242d826120d7565b9050602081019050919050565b82818337600083830152505050565b600061245c61245784612409565b6123ee565b90508281526020810184848401111561247857612477612389565b5b61248384828561243a565b509392505050565b600082601f8301126124a05761249f612384565b5b81356124b0848260208601612449565b91505092915050565b600080600080608085870312156124d3576124d2611fcc565b5b60006124e187828801612219565b94505060206124f287828801612219565b935050604061250387828801612164565b925050606085013567ffffffffffffffff81111561252457612523611fd1565b5b6125308782880161248b565b91505092959194509250565b6000806040838503121561255357612552611fcc565b5b600061256185828601612219565b925050602061257285828601612219565b9150509250929050565b600067ffffffffffffffff8211156125975761259661238e565b5b6125a0826120d7565b9050602081019050919050565b60006125c06125bb8461257c565b6123ee565b9050828152602081018484840111156125dc576125db612389565b5b6125e784828561243a565b509392505050565b600082601f83011261260457612603612384565b5b81356126148482602086016125ad565b91505092915050565b6000806040838503121561263457612633611fcc565b5b600061264285828601612219565b925050602083013567ffffffffffffffff81111561266357612662611fd1565b5b61266f858286016125ef565b9150509250929050565b7f4e487b7100000000000000000000000000000000000000000000000000000000600052602260045260246000fd5b600060028204905060018216806126c057607f821691505b6020821081036126d3576126d2612679565b5b50919050565b60006060820190506126ee60008301866121d8565b6126fb60208301856122ee565b61270860408301846121d8565b949350505050565b6000819050919050565b600067ffffffffffffffff82169050919050565b6000819050919050565b600061275361274e61274984612710565b61272e565b61271a565b9050919050565b61276381612738565b82525050565b600060208201905061277e600083018461275a565b92915050565b600081905092915050565b600061279a82612091565b6127a48185612784565b93506127b48185602086016120ad565b80840191505092915050565b60006127cc828561278f565b91506127d8828461278f565b91508190509392505050565b7f4e487b7100000000000000000000000000000000000000000000000000000000600052601160045260246000fd5b600061281e82612143565b91507fffffffffffffffffffffffffffffffffffffffffffffffffffffffffffffffff82036128505761284f6127e4565b5b600182019050919050565b600081519050919050565b600082825260208201905092915050565b60006128828261285b565b61288c8185612866565b935061289c8185602086016120ad565b6128a5816120d7565b840191505092915050565b60006080820190506128c560008301876121d8565b6128d260208301866121d8565b6128df60408301856122ee565b81810360608301526128f18184612877565b905095945050505050565b60008151905061290b81612002565b92915050565b60006020828403121561292757612926611fcc565b5b6000612935848285016128fc565b91505092915050565b60008190508160005260206000209050919050565b60006020601f8301049050919050565b600082821b905092915050565b6000600883026129a07fffffffffffffffffffffffffffffffffffffffffffffffffffffffffffffffff82612963565b6129aa8683612963565b95508019841693508086168417925050509392505050565b60006129dd6129d86129d384612143565b61272e565b612143565b9050919050565b6000819050919050565b6129f7836129c2565b612a0b612a03826129e4565b848454612970565b825550505050565b600090565b612a20612a13565b612a2b8184846129ee565b505050565b5b81811015612a4f57612a44600082612a18565b600181019050612a31565b5050565b601f821115612a9457612a658161293e565b612a6e84612953565b81016020851015612a7d578190505b612a91612a8985612953565b830182612a30565b50505b505050565b600082821c905092915050565b6000612ab760001984600802612a99565b1980831691505092915050565b6000612ad08383612aa6565b9150826002028217905092915050565b612ae982612091565b67ffffffffffffffff811115612b0257612b0161238e565b5b612b0c82546126a8565b612b17828285612a53565b600060209050601f831160018114612b4a5760008415612b38578287015190505b612b428582612ac4565b865550612baa565b601f198416612b588661293e565b60005b82811015612b8057848901518255600182019150602085019450602081019050612b5b565b86831015612b9d5784890151612b99601f891682612aa6565b8355505b6001600288020188555050505b505050505050565b6000604082019050612bc760008301856121d8565b612bd460208301846122ee565b9392505050565b7f4e487b7100000000000000000000000000000000000000000000000000000000600052601260045260246000fdfea2646970667358221220b42ab359c718bcdc3945405fa30f6bffb9ae1afb268c78ccac44c99f1e7f9e8664736f6c634300081c0033",
  "linkReferences": {},
  "deployedLinkReferences": {}
}