{
  "_format": "hh-sol-artifact-1",
  "contractName": "MyNFTV4",
  "sourceName": "contracts/MyNFTV4.sol",
  "abi": [
    {
      "inputs": [
        {
          "internalType": "address",
          "name": "sender",
          "type": "address"
        },
        {
          "internalType": "uint256",
          "name": "tokenId",
          "type": "uint256"
        },
        {
          "internalType": "address",
          "name": "owner",
          "type": "address"
        }
      ],
      "name": "ERC721IncorrectOwner",
      "type": "error"
    },
    {
      "inputs": [
        {
          "internalType": "address",
          "name": "operator",
          "type": "address"
        },
        {
          "internalType": "uint256",
          "name": "tokenId",
          "type": "uint256"
        }
      ],
      "name": "ERC721InsufficientApproval",
      "type": "error"
    },
    {
      "inputs": [
        {
          "internalType": "address",
          "name": "approver",
          "type": "address"
        }
      ],
      "name": "ERC721InvalidApprover",
      "type": "error"
    },
    {
      "inputs": [
        {
          "internalType": "address",
          "name": "operator",
          "type": "address"
        }
      ],
      "name": "ERC721InvalidOperator",
      "type": "error"
    },
    {
      "inputs": [
        {
          "internalType": "address",
          "name": "owner",
          "type": "address"
        }
      ],
      "name": "ERC721InvalidOwner",
      "type": "error"
    },
    {
      "inputs": [
        {
          "internalType": "address",
          "name": "receiver",
          "type": "address"
        }
      ],
      "name": "ERC721InvalidReceiver",
      "type": "error"
    },
    {
      "inputs": [
        {
          "internalType": "address",
          "name": "sender",
          "type": "address"
        }
      ],
      "name": "ERC721InvalidSender",
      "type": "error"
    },
    {
      "inputs": [
        {
          "internalType": "uint256",
          "name": "tokenId",
          "type": "uint256"
        }
      ],
      "name": "ERC721NonexistentToken",
      "type": "error"
    },
    {
      "inputs": [],
      "name": "InvalidInitialization",
      "type": "error"
    },
    {
      "inputs": [],
      "name": "NotInitializing",
      "type": "error"
    },
    {
      "inputs": [
        {
          "internalType": "address",
          "name": "owner",
          "type": "address"
        }
      ],
      "name": "OwnableInvalidOwner",
      "type": "error"
    },
    {
      "inputs": [
        {
          "internalType": "address",
          "name": "account",
          "type": "address"
        }
      ],
      "name": "OwnableUnauthorizedAccount",
      "type": "error"
    },
    {
      "anonymous": false,
      "inputs": [
        {
          "indexed": true,
          "internalType": "address",
          "name": "owner",
          "type": "address"
        },
        {
          "indexed": true,
          "internalType": "address",
          "name": "approved",
          "type": "address"
        },
        {
          "indexed": true,
          "internalType": "uint256",
          "name": "tokenId",
          "type": "uint256"
        }
      ],
      "name": "Approval",
      "type": "event"
    },
    {
      "anonymous": false,
      "inputs": [
        {
          "indexed": true,
          "internalType": "address",
          "name": "owner",
          "type": "address"
        },
        {
          "indexed": true,
          "internalType": "address",
          "name": "operator",
          "type": "address"
        },
        {
          "indexed": false,
          "internalType": "bool",
          "name": "approved",
          "type": "bool"
        }
      ],
      "name": "ApprovalForAll",
      "type": "event"
    },
    {
      "anonymous": false,
      "inputs": [
        {
          "indexed": false,
          "internalType": "uint256",
          "name": "_fromTokenId",
          "type": "uint256"
        },
        {
          "indexed": false,
          "internalType": "uint256",
          "name": "_toTokenId",
          "type": "uint256"
        }
      ],
      "name": "BatchMetadataUpdate",
      "type": "event"
    },
    {
      "anonymous": false,
      "inputs": [
        {
          "indexed": false,
          "internalType": "uint64",
          "name": "version",
          "type": "uint64"
        }
      ],
      "name": "Initialized",
      "type": "event"
    },
    {
      "anonymous": false,
      "inputs": [
        {
          "indexed": false,
          "internalType": "uint256",
          "name": "_tokenId",
          "type": "uint256"
        }
      ],
      "name": "MetadataUpdate",
      "type": "event"
    },
    {
      "anonymous": false,
      "inputs": [
        {
          "indexed": true,
          "internalType": "address",
          "name": "previousOwner",
          "type": "address"
        },
        {
          "indexed": true,
          "internalType": "address",
          "name": "newOwner",
          "type": "address"
        }
      ],
      "name": "OwnershipTransferred",
      "type": "event"
    },
    {
      "anonymous": false,
      "inputs": [
        {
          "indexed": true,
          "internalType": "address",
          "name": "from",
          "type": "address"
        },
        {
          "indexed": true,
          "internalType": "address",
          "name": "to",
          "type": "address"
        },
        {
          "indexed": true,
          "internalType": "uint256",
          "name": "tokenId",
          "type": "uint256"
        }
      ],
      "name": "Transfer",
      "type": "event"
    },
    {
      "inputs": [
        {
          "internalType": "address",
          "name": "to",
          "type": "address"
        },
        {
          "internalType": "uint256",
          "name": "tokenId",
          "type": "uint256"
        }
      ],
      "name": "approve",
      "outputs": [],
      "stateMutability": "nonpayable",
      "type": "function"
    },
    {
      "inputs": [],
      "name": "author",
      "outputs": [
        {
          "internalType": "string",
          "name": "",
          "type": "string"
        }
      ],
      "stateMutability": "pure",
      "type": "function"
    },
    {
      "inputs": [
        {
          "internalType": "address",
          "name": "owner",
          "type": "address"
        }
      ],
      "name": "balanceOf",
      "outputs": [
        {
          "internalType": "uint256",
          "name": "",
          "type": "uint256"
        }
      ],
      "stateMutability": "view",
      "type": "function"
    },
    {
      "inputs": [
        {
          "internalType": "uint256",
          "name": "tokenId",
          "type": "uint256"
        }
      ],
      "name": "getApproved",
      "outputs": [
        {
          "internalType": "address",
          "name": "",
          "type": "address"
        }
      ],
      "stateMutability": "view",
      "type": "function"
    },
    {
      "inputs": [
        {
          "internalType": "address",
          "name": "owner",
          "type": "address"
        }
      ],
      "name": "getNFTsByOwner",
      "outputs": [
        {
          "internalType": "uint256[]",
          "name": "",
          "type": "uint256[]"
        }
      ],
      "stateMutability": "view",
      "type": "function"
    },
    {
      "inputs": [
        {
          "internalType": "uint256",
          "name": "tokenId",
          "type": "uint256"
        }
      ],
      "name": "getTokenURI",
      "outputs": [
        {
          "internalType": "string",
          "name": "",
          "type": "string"
        }
      ],
      "stateMutability": "view",
      "type": "function"
    },
    {
      "inputs": [],
      "name": "initialize",
      "outputs": [],
      "stateMutability": "nonpayable",
      "type": "function"
    },
    {
      "inputs": [
        {
          "internalType": "address",
          "name": "owner",
          "type": "address"
        },
        {
          "internalType": "address",
          "name": "operator",
          "type": "address"
        }
      ],
      "name": "isApprovedForAll",
      "outputs": [
        {
          "internalType": "bool",
          "name": "",
          "type": "bool"
        }
      ],
      "stateMutability": "view",
      "type": "function"
    },
    {
      "inputs": [
        {
          "internalType": "address",
          "name": "recipient",
          "type": "address"
        },
        {
          "internalType": "string",
          "name": "tokenURI",
          "type": "string"
        }
      ],
      "name": "mintNFT",
      "outputs": [
        {
          "internalType": "uint256",
          "name": "",
          "type": "uint256"
        }
      ],
      "stateMutability": "nonpayable",
      "type": "function"
    },
    {
      "inputs": [],
      "name": "name",
      "outputs": [
        {
          "internalType": "string",
          "name": "",
          "type": "string"
        }
      ],
      "stateMutability": "view",
      "type": "function"
    },
    {
      "inputs": [],
      "name": "owner",
      "outputs": [
        {
          "internalType": "address",
          "name": "",
          "type": "address"
        }
      ],
      "stateMutability": "view",
      "type": "function"
    },
    {
      "inputs": [
        {
          "internalType": "uint256",
          "name": "tokenId",
          "type": "uint256"
        }
      ],
      "name": "ownerOf",
      "outputs": [
        {
          "internalType": "address",
          "name": "",
          "type": "address"
        }
      ],
      "stateMutability": "view",
      "type": "function"
    },
    {
      "inputs": [],
      "name": "renounceOwnership",
      "outputs": [],
      "stateMutability": "nonpayable",
      "type": "function"
    },
    {
      "inputs": [
        {
          "internalType": "address",
          "name": "from",
          "type": "address"
        },
        {
          "internalType": "address",
          "name": "to",
          "type": "address"
        },
        {
          "internalType": "uint256",
          "name": "tokenId",
          "type": "uint256"
        }
      ],
      "name": "safeTransferFrom",
      "outputs": [],
      "stateMutability": "nonpayable",
      "type": "function"
    },
    {
      "inputs": [
        {
          "internalType": "address",
          "name": "from",
          "type": "address"
        },
        {
          "internalType": "address",
          "name": "to",
          "type": "address"
        },
        {
          "internalType": "uint256",
          "name": "tokenId",
          "type": "uint256"
        },
        {
          "internalType": "bytes",
          "name": "data",
          "type": "bytes"
        }
      ],
      "name": "safeTransferFrom",
      "outputs": [],
      "stateMutability": "nonpayable",
      "type": "function"
    },
    {
      "inputs": [
        {
          "internalType": "address",
          "name": "operator",
          "type": "address"
        },
        {
          "internalType": "bool",
          "name": "approved",
          "type": "bool"
        }
      ],
      "name": "setApprovalForAll",
      "outputs": [],
      "stateMutability": "nonpayable",
      "type": "function"
    },
    {
      "inputs": [
        {
          "internalType": "bytes4",
          "name": "interfaceId",
          "type": "bytes4"
        }
      ],
      "name": "supportsInterface",
      "outputs": [
        {
          "internalType": "bool",
          "name": "",
          "type": "bool"
        }
      ],
      "stateMutability": "view",
      "type": "function"
    },
    {
      "inputs": [],
      "name": "symbol",
      "outputs": [
        {
          "internalType": "string",
          "name": "",
          "type": "string"
        }
      ],
      "stateMutability": "view",
      "type": "function"
    },
    {
      "inputs": [
        {
          "internalType": "uint256",
          "name": "tokenId",
          "type": "uint256"
        }
      ],
      "name": "tokenURI",
      "outputs": [
        {
          "internalType": "string",
          "name": "",
          "type": "string"
        }
      ],
      "stateMutability": "view",
      "type": "function"
    },
    {
      "inputs": [],
      "name": "totalMintedNFTs",
      "outputs": [
        {
          "internalType": "uint256",
          "name": "",
          "type": "uint256"
        }
      ],
      "stateMutability": "view",
      "type": "function"
    },
    {
      "inputs": [
        {
          "internalType": "address",
          "name": "from",
          "type": "address"
        },
        {
          "internalType": "address",
          "name": "to",
          "type": "address"
        },
        {
          "internalType": "uint256",
          "name": "tokenId",
          "type": "uint256"
        }
      ],
      "name": "transferFrom",
      "outputs": [],
      "stateMutability": "nonpayable",
      "type": "function"
    },
    {
      "inputs": [
        {
          "internalType": "address",
          "name": "newOwner",
          "type": "address"
        }
      ],
      "name": "transferOwnership",
      "outputs": [],
      "stateMutability": "nonpayable",
      "type": "function"
    },
    {
      "inputs": [],
      "name": "version",
      "outputs": [
        {
          "internalType": "string",
          "name": "",
          "type": "string"
        }
      ],
      "stateMutability": "pure",
      "type": "function"
    }
  ],
  "bytecode": "0x6080604052348015600f57600080fd5b50612ee18061001f6000396000f3fe608060405234801561001057600080fd5b506004361061014d5760003560e01c8063715018a6116100c3578063b88d4fde1161007c578063b88d4fde1461037a578063c87b56dd14610396578063e2afe8b3146103c6578063e985e9c5146103f6578063eacabe1414610426578063f2fde38b146104565761014d565b8063715018a6146102f05780638129fc1c146102fa5780638da5cb5b1461030457806395d89b4114610322578063a22cb46514610340578063a6c3e6b91461035c5761014d565b806323b872dd1161011557806323b872dd1461020a5780633bb3a24d1461022657806342842e0e1461025657806354fd4d50146102725780636352211e1461029057806370a08231146102c05761014d565b806301ffc9a714610152578063052710b61461018257806306fdde03146101a0578063081812fc146101be578063095ea7b3146101ee575b600080fd5b61016c600480360381019061016791906121ef565b610472565b6040516101799190612237565b60405180910390f35b61018a6104d3565b604051610197919061226b565b60405180910390f35b6101a86104dc565b6040516101b59190612316565b60405180910390f35b6101d860048036038101906101d39190612364565b61057d565b6040516101e591906123d2565b60405180910390f35b61020860048036038101906102039190612419565b610599565b005b610224600480360381019061021f9190612459565b6105af565b005b610240600480360381019061023b9190612364565b6106b1565b60405161024d9190612316565b60405180910390f35b610270600480360381019061026b9190612459565b6106c3565b005b61027a6106e3565b6040516102879190612316565b60405180910390f35b6102aa60048036038101906102a59190612364565b610720565b6040516102b791906123d2565b60405180910390f35b6102da60048036038101906102d591906124ac565b610732565b6040516102e7919061226b565b60405180910390f35b6102f86107fb565b005b61030261080f565b005b61030c610a19565b60405161031991906123d2565b60405180910390f35b61032a610a51565b6040516103379190612316565b60405180910390f35b61035a60048036038101906103559190612505565b610af2565b005b610364610b08565b6040516103719190612316565b60405180910390f35b610394600480360381019061038f919061267a565b610b45565b005b6103b060048036038101906103ab9190612364565b610b6a565b6040516103bd9190612316565b60405180910390f35b6103e060048036038101906103db91906124ac565b610c8e565b6040516103ed91906127bb565b60405180910390f35b610410600480360381019061040b91906127dd565b610d25565b60405161041d9190612237565b60405180910390f35b610440600480360381019061043b91906128be565b610dc7565b60405161044d919061226b565b60405180910390f35b610470600480360381019061046b91906124ac565b610e6a565b005b6000634906490660e01b7bffffffffffffffffffffffffffffffffffffffffffffffffffffffff1916827bffffffffffffffffffffffffffffffffffffffffffffffffffffffff191614806104cc57506104cb82610ef0565b5b9050919050565b60008054905090565b606060006104e8610fd2565b90508060000180546104f990612949565b80601f016020809104026020016040519081016040528092919081815260200182805461052590612949565b80156105725780601f1061054757610100808354040283529160200191610572565b820191906000526020600020905b81548152906001019060200180831161055557829003601f168201915b505050505091505090565b600061058882610ffa565b5061059282611082565b9050919050565b6105ab82826105a66110cd565b6110d5565b5050565b600073ffffffffffffffffffffffffffffffffffffffff168273ffffffffffffffffffffffffffffffffffffffff16036106215760006040517f64a0ae9200000000000000000000000000000000000000000000000000000000815260040161061891906123d2565b60405180910390fd5b600061063583836106306110cd565b6110e7565b90508373ffffffffffffffffffffffffffffffffffffffff168173ffffffffffffffffffffffffffffffffffffffff16146106ab578382826040517f64283d7b0000000000000000000000000000000000000000000000000000000081526004016106a29392919061297a565b60405180910390fd5b50505050565b60606106bc82610b6a565b9050919050565b6106de83838360405180602001604052806000815250610b45565b505050565b60606040518060400160405280600581526020017f312e312e31000000000000000000000000000000000000000000000000000000815250905090565b600061072b82610ffa565b9050919050565b60008061073d610fd2565b9050600073ffffffffffffffffffffffffffffffffffffffff168373ffffffffffffffffffffffffffffffffffffffff16036107b15760006040517f89c62b640000000000000000000000000000000000000000000000000000000081526004016107a891906123d2565b60405180910390fd5b8060030160008473ffffffffffffffffffffffffffffffffffffffff1673ffffffffffffffffffffffffffffffffffffffff16815260200190815260200160002054915050919050565b610803611314565b61080d600061139b565b565b6000610819611472565b905060008160000160089054906101000a900460ff1615905060008260000160009054906101000a900467ffffffffffffffff1690506000808267ffffffffffffffff161480156108675750825b9050600060018367ffffffffffffffff1614801561089c575060003073ffffffffffffffffffffffffffffffffffffffff163b145b9050811580156108aa575080155b156108e1576040517ff92ee8a900000000000000000000000000000000000000000000000000000000815260040160405180910390fd5b60018560000160006101000a81548167ffffffffffffffff021916908367ffffffffffffffff16021790555083156109315760018560000160086101000a81548160ff0219169083151502179055505b61093961149a565b6109ad6040518060400160405280600581526020017f4d794e46540000000000000000000000000000000000000000000000000000008152506040518060400160405280600681526020017f596f6f4e465400000000000000000000000000000000000000000000000000008152506114a4565b6109b6336114ba565b8315610a125760008560000160086101000a81548160ff0219169083151502179055507fc7f505b2f371ae2175ee4913f4499e1f2633a7b5936321eed1cdaeb6115181d26001604051610a099190612a0a565b60405180910390a15b5050505050565b600080610a246114ce565b90508060000160009054906101000a900473ffffffffffffffffffffffffffffffffffffffff1691505090565b60606000610a5d610fd2565b9050806001018054610a6e90612949565b80601f0160208091040260200160405190810160405280929190818152602001828054610a9a90612949565b8015610ae75780601f10610abc57610100808354040283529160200191610ae7565b820191906000526020600020905b815481529060010190602001808311610aca57829003601f168201915b505050505091505090565b610b04610afd6110cd565b83836114f6565b5050565b60606040518060400160405280600e81526020017f5942575f323032352e30312e3035000000000000000000000000000000000000815250905090565b610b508484846105af565b610b64610b5b6110cd565b85858585611674565b50505050565b60606000610b76611825565b9050610b8183610ffa565b5060008160000160008581526020019081526020016000208054610ba490612949565b80601f0160208091040260200160405190810160405280929190818152602001828054610bd090612949565b8015610c1d5780601f10610bf257610100808354040283529160200191610c1d565b820191906000526020600020905b815481529060010190602001808311610c0057829003601f168201915b505050505090506000610c2e61184d565b90506000815103610c4457819350505050610c89565b600082511115610c7a578082604051602001610c61929190612a61565b6040516020818303038152906040529350505050610c89565b610c8385611864565b93505050505b919050565b6060600160008373ffffffffffffffffffffffffffffffffffffffff1673ffffffffffffffffffffffffffffffffffffffff168152602001908152602001600020805480602002602001604051908101604052809291908181526020018280548015610d1957602002820191906000526020600020905b815481526020019060010190808311610d05575b50505050509050919050565b600080610d30610fd2565b90508060050160008573ffffffffffffffffffffffffffffffffffffffff1673ffffffffffffffffffffffffffffffffffffffff16815260200190815260200160002060008473ffffffffffffffffffffffffffffffffffffffff1673ffffffffffffffffffffffffffffffffffffffff16815260200190815260200160002060009054906101000a900460ff1691505092915050565b6000806000815480929190610ddb90612ab4565b9190505550600080549050610df084826118cd565b610dfa81846119c6565b600160008573ffffffffffffffffffffffffffffffffffffffff1673ffffffffffffffffffffffffffffffffffffffff1681526020019081526020016000208190806001815401808255809150506001900390600052602060002001600090919091909150558091505092915050565b610e72611314565b600073ffffffffffffffffffffffffffffffffffffffff168173ffffffffffffffffffffffffffffffffffffffff1603610ee45760006040517f1e4fbdf7000000000000000000000000000000000000000000000000000000008152600401610edb91906123d2565b60405180910390fd5b610eed8161139b565b50565b60007f80ac58cd000000000000000000000000000000000000000000000000000000007bffffffffffffffffffffffffffffffffffffffffffffffffffffffff1916827bffffffffffffffffffffffffffffffffffffffffffffffffffffffff19161480610fbb57507f5b5e139f000000000000000000000000000000000000000000000000000000007bffffffffffffffffffffffffffffffffffffffffffffffffffffffff1916827bffffffffffffffffffffffffffffffffffffffffffffffffffffffff1916145b80610fcb5750610fca82611a31565b5b9050919050565b60007f80bb2b638cc20bc4d0a60d66940f3ab4a00c1d7b313497ca82fb0b4ab0079300905090565b60008061100683611a9b565b9050600073ffffffffffffffffffffffffffffffffffffffff168173ffffffffffffffffffffffffffffffffffffffff160361107957826040517f7e273289000000000000000000000000000000000000000000000000000000008152600401611070919061226b565b60405180910390fd5b80915050919050565b60008061108d610fd2565b905080600401600084815260200190815260200160002060009054906101000a900473ffffffffffffffffffffffffffffffffffffffff16915050919050565b600033905090565b6110e28383836001611ae6565b505050565b6000806110f2610fd2565b905060006110ff85611a9b565b9050600073ffffffffffffffffffffffffffffffffffffffff168473ffffffffffffffffffffffffffffffffffffffff161461114157611140818587611cba565b5b600073ffffffffffffffffffffffffffffffffffffffff168173ffffffffffffffffffffffffffffffffffffffff16146111d457611183600086600080611ae6565b60018260030160008373ffffffffffffffffffffffffffffffffffffffff1673ffffffffffffffffffffffffffffffffffffffff168152602001908152602001600020600082825403925050819055505b600073ffffffffffffffffffffffffffffffffffffffff168673ffffffffffffffffffffffffffffffffffffffff16146112595760018260030160008873ffffffffffffffffffffffffffffffffffffffff1673ffffffffffffffffffffffffffffffffffffffff168152602001908152602001600020600082825401925050819055505b8582600201600087815260200190815260200160002060006101000a81548173ffffffffffffffffffffffffffffffffffffffff021916908373ffffffffffffffffffffffffffffffffffffffff160217905550848673ffffffffffffffffffffffffffffffffffffffff168273ffffffffffffffffffffffffffffffffffffffff167fddf252ad1be2c89b69c2b068fc378daa952ba7f163c4a11628f55a4df523b3ef60405160405180910390a480925050509392505050565b61131c6110cd565b73ffffffffffffffffffffffffffffffffffffffff1661133a610a19565b73ffffffffffffffffffffffffffffffffffffffff16146113995761135d6110cd565b6040517f118cdaa700000000000000000000000000000000000000000000000000000000815260040161139091906123d2565b60405180910390fd5b565b60006113a56114ce565b905060008160000160009054906101000a900473ffffffffffffffffffffffffffffffffffffffff169050828260000160006101000a81548173ffffffffffffffffffffffffffffffffffffffff021916908373ffffffffffffffffffffffffffffffffffffffff1602179055508273ffffffffffffffffffffffffffffffffffffffff168173ffffffffffffffffffffffffffffffffffffffff167f8be0079c531659141344cd1fd0a4f28419497f9722a3daafe3b4186f6b6457e060405160405180910390a3505050565b60007ff0c57e16840df040f15088dc2f81fe391c3923bec73e23a9662efc9c229c6a00905090565b6114a2611d7e565b565b6114ac611d7e565b6114b68282611dbe565b5050565b6114c2611d7e565b6114cb81611dfb565b50565b60007f9016d09d72d40fdae2fd8ceac6b6234c7706214fd39c1cd1e609a0528c199300905090565b6000611500610fd2565b9050600073ffffffffffffffffffffffffffffffffffffffff168373ffffffffffffffffffffffffffffffffffffffff160361157357826040517f5b08ba1800000000000000000000000000000000000000000000000000000000815260040161156a91906123d2565b60405180910390fd5b818160050160008673ffffffffffffffffffffffffffffffffffffffff1673ffffffffffffffffffffffffffffffffffffffff16815260200190815260200160002060008573ffffffffffffffffffffffffffffffffffffffff1673ffffffffffffffffffffffffffffffffffffffff16815260200190815260200160002060006101000a81548160ff0219169083151502179055508273ffffffffffffffffffffffffffffffffffffffff168473ffffffffffffffffffffffffffffffffffffffff167f17307eab39ab6107e8899845ad3d59bd9653f200f220920489ca2b5937696c31846040516116669190612237565b60405180910390a350505050565b60008373ffffffffffffffffffffffffffffffffffffffff163b111561181e578273ffffffffffffffffffffffffffffffffffffffff1663150b7a02868685856040518563ffffffff1660e01b81526004016116d39493929190612b51565b6020604051808303816000875af192505050801561170f57506040513d601f19601f8201168201806040525081019061170c9190612bb2565b60015b611793573d806000811461173f576040519150601f19603f3d011682016040523d82523d6000602084013e611744565b606091505b50600081510361178b57836040517f64a0ae9200000000000000000000000000000000000000000000000000000000815260040161178291906123d2565b60405180910390fd5b805181602001fd5b63150b7a0260e01b7bffffffffffffffffffffffffffffffffffffffffffffffffffffffff1916817bffffffffffffffffffffffffffffffffffffffffffffffffffffffff19161461181c57836040517f64a0ae9200000000000000000000000000000000000000000000000000000000815260040161181391906123d2565b60405180910390fd5b505b5050505050565b60007f0542a41881ee128a365a727b282c86fa859579490b9bb45aab8503648c8e7900905090565b606060405180602001604052806000815250905090565b606061186f82610ffa565b50600061187a61184d565b9050600081511161189a57604051806020016040528060008152506118c5565b806118a484611e81565b6040516020016118b5929190612a61565b6040516020818303038152906040525b915050919050565b600073ffffffffffffffffffffffffffffffffffffffff168273ffffffffffffffffffffffffffffffffffffffff160361193f5760006040517f64a0ae9200000000000000000000000000000000000000000000000000000000815260040161193691906123d2565b60405180910390fd5b600061194d838360006110e7565b9050600073ffffffffffffffffffffffffffffffffffffffff168173ffffffffffffffffffffffffffffffffffffffff16146119c15760006040517f73c6ac6e0000000000000000000000000000000000000000000000000000000081526004016119b891906123d2565b60405180910390fd5b505050565b60006119d0611825565b90508181600001600085815260200190815260200160002090816119f49190612d81565b507ff8e1a15aba9398e019f0b49df1a4fde98ee17ae345cb5f6b5e2c27f5033e8ce783604051611a24919061226b565b60405180910390a1505050565b60007f01ffc9a7000000000000000000000000000000000000000000000000000000007bffffffffffffffffffffffffffffffffffffffffffffffffffffffff1916827bffffffffffffffffffffffffffffffffffffffffffffffffffffffff1916149050919050565b600080611aa6610fd2565b905080600201600084815260200190815260200160002060009054906101000a900473ffffffffffffffffffffffffffffffffffffffff16915050919050565b6000611af0610fd2565b90508180611b2b5750600073ffffffffffffffffffffffffffffffffffffffff168373ffffffffffffffffffffffffffffffffffffffff1614155b15611c5f576000611b3b85610ffa565b9050600073ffffffffffffffffffffffffffffffffffffffff168473ffffffffffffffffffffffffffffffffffffffff1614158015611ba657508373ffffffffffffffffffffffffffffffffffffffff168173ffffffffffffffffffffffffffffffffffffffff1614155b8015611bb95750611bb78185610d25565b155b15611bfb57836040517fa9fbf51f000000000000000000000000000000000000000000000000000000008152600401611bf291906123d2565b60405180910390fd5b8215611c5d57848673ffffffffffffffffffffffffffffffffffffffff168273ffffffffffffffffffffffffffffffffffffffff167f8c5be1e5ebec7d5bd14f71427d1e84f3dd0314c0f7b2291e5b200ac8c7c3b92560405160405180910390a45b505b8481600401600086815260200190815260200160002060006101000a81548173ffffffffffffffffffffffffffffffffffffffff021916908373ffffffffffffffffffffffffffffffffffffffff1602179055505050505050565b611cc5838383611f4f565b611d7957600073ffffffffffffffffffffffffffffffffffffffff168373ffffffffffffffffffffffffffffffffffffffff1603611d3a57806040517f7e273289000000000000000000000000000000000000000000000000000000008152600401611d31919061226b565b60405180910390fd5b81816040517f177e802f000000000000000000000000000000000000000000000000000000008152600401611d70929190612e53565b60405180910390fd5b505050565b611d86612010565b611dbc576040517fd7e6bcf800000000000000000000000000000000000000000000000000000000815260040160405180910390fd5b565b611dc6611d7e565b6000611dd0610fd2565b905082816000019081611de39190612d81565b5081816001019081611df59190612d81565b50505050565b611e03611d7e565b600073ffffffffffffffffffffffffffffffffffffffff168173ffffffffffffffffffffffffffffffffffffffff1603611e755760006040517f1e4fbdf7000000000000000000000000000000000000000000000000000000008152600401611e6c91906123d2565b60405180910390fd5b611e7e8161139b565b50565b606060006001611e9084612030565b01905060008167ffffffffffffffff811115611eaf57611eae61254f565b5b6040519080825280601f01601f191660200182016040528015611ee15781602001600182028036833780820191505090505b509050600082602001820190505b600115611f44578080600190039150507f3031323334353637383961626364656600000000000000000000000000000000600a86061a8153600a8581611f3857611f37612e7c565b5b04945060008503611eef575b819350505050919050565b60008073ffffffffffffffffffffffffffffffffffffffff168373ffffffffffffffffffffffffffffffffffffffff161415801561200757508273ffffffffffffffffffffffffffffffffffffffff168473ffffffffffffffffffffffffffffffffffffffff161480611fc85750611fc78484610d25565b5b8061200657508273ffffffffffffffffffffffffffffffffffffffff16611fee83611082565b73ffffffffffffffffffffffffffffffffffffffff16145b5b90509392505050565b600061201a611472565b60000160089054906101000a900460ff16905090565b600080600090507a184f03e93ff9f4daa797ed6e38ed64bf6a1f010000000000000000831061208e577a184f03e93ff9f4daa797ed6e38ed64bf6a1f010000000000000000838161208457612083612e7c565b5b0492506040810190505b6d04ee2d6d415b85acef810000000083106120cb576d04ee2d6d415b85acef810000000083816120c1576120c0612e7c565b5b0492506020810190505b662386f26fc1000083106120fa57662386f26fc1000083816120f0576120ef612e7c565b5b0492506010810190505b6305f5e1008310612123576305f5e100838161211957612118612e7c565b5b0492506008810190505b612710831061214857612710838161213e5761213d612e7c565b5b0492506004810190505b6064831061216b576064838161216157612160612e7c565b5b0492506002810190505b600a831061217a576001810190505b80915050919050565b6000604051905090565b600080fd5b600080fd5b60007fffffffff0000000000000000000000000000000000000000000000000000000082169050919050565b6121cc81612197565b81146121d757600080fd5b50565b6000813590506121e9816121c3565b92915050565b6000602082840312156122055761220461218d565b5b6000612213848285016121da565b91505092915050565b60008115159050919050565b6122318161221c565b82525050565b600060208201905061224c6000830184612228565b92915050565b6000819050919050565b61226581612252565b82525050565b6000602082019050612280600083018461225c565b92915050565b600081519050919050565b600082825260208201905092915050565b60005b838110156122c05780820151818401526020810190506122a5565b60008484015250505050565b6000601f19601f8301169050919050565b60006122e882612286565b6122f28185612291565b93506123028185602086016122a2565b61230b816122cc565b840191505092915050565b6000602082019050818103600083015261233081846122dd565b905092915050565b61234181612252565b811461234c57600080fd5b50565b60008135905061235e81612338565b92915050565b60006020828403121561237a5761237961218d565b5b60006123888482850161234f565b91505092915050565b600073ffffffffffffffffffffffffffffffffffffffff82169050919050565b60006123bc82612391565b9050919050565b6123cc816123b1565b82525050565b60006020820190506123e760008301846123c3565b92915050565b6123f6816123b1565b811461240157600080fd5b50565b600081359050612413816123ed565b92915050565b600080604083850312156124305761242f61218d565b5b600061243e85828601612404565b925050602061244f8582860161234f565b9150509250929050565b6000806000606084860312156124725761247161218d565b5b600061248086828701612404565b935050602061249186828701612404565b92505060406124a28682870161234f565b9150509250925092565b6000602082840312156124c2576124c161218d565b5b60006124d084828501612404565b91505092915050565b6124e28161221c565b81146124ed57600080fd5b50565b6000813590506124ff816124d9565b92915050565b6000806040838503121561251c5761251b61218d565b5b600061252a85828601612404565b925050602061253b858286016124f0565b9150509250929050565b600080fd5b600080fd5b7f4e487b7100000000000000000000000000000000000000000000000000000000600052604160045260246000fd5b612587826122cc565b810181811067ffffffffffffffff821117156125a6576125a561254f565b5b80604052505050565b60006125b9612183565b90506125c5828261257e565b919050565b600067ffffffffffffffff8211156125e5576125e461254f565b5b6125ee826122cc565b9050602081019050919050565b82818337600083830152505050565b600061261d612618846125ca565b6125af565b9050828152602081018484840111156126395761263861254a565b5b6126448482856125fb565b509392505050565b600082601f83011261266157612660612545565b5b813561267184826020860161260a565b91505092915050565b600080600080608085870312156126945761269361218d565b5b60006126a287828801612404565b94505060206126b387828801612404565b93505060406126c48782880161234f565b925050606085013567ffffffffffffffff8111156126e5576126e4612192565b5b6126f18782880161264c565b91505092959194509250565b600081519050919050565b600082825260208201905092915050565b6000819050602082019050919050565b61273281612252565b82525050565b60006127448383612729565b60208301905092915050565b6000602082019050919050565b6000612768826126fd565b6127728185612708565b935061277d83612719565b8060005b838110156127ae5781516127958882612738565b97506127a083612750565b925050600181019050612781565b5085935050505092915050565b600060208201905081810360008301526127d5818461275d565b905092915050565b600080604083850312156127f4576127f361218d565b5b600061280285828601612404565b925050602061281385828601612404565b9150509250929050565b600067ffffffffffffffff8211156128385761283761254f565b5b612841826122cc565b9050602081019050919050565b600061286161285c8461281d565b6125af565b90508281526020810184848401111561287d5761287c61254a565b5b6128888482856125fb565b509392505050565b600082601f8301126128a5576128a4612545565b5b81356128b584826020860161284e565b91505092915050565b600080604083850312156128d5576128d461218d565b5b60006128e385828601612404565b925050602083013567ffffffffffffffff81111561290457612903612192565b5b61291085828601612890565b9150509250929050565b7f4e487b7100000000000000000000000000000000000000000000000000000000600052602260045260246000fd5b6000600282049050600182168061296157607f821691505b6020821081036129745761297361291a565b5b50919050565b600060608201905061298f60008301866123c3565b61299c602083018561225c565b6129a960408301846123c3565b949350505050565b6000819050919050565b600067ffffffffffffffff82169050919050565b6000819050919050565b60006129f46129ef6129ea846129b1565b6129cf565b6129bb565b9050919050565b612a04816129d9565b82525050565b6000602082019050612a1f60008301846129fb565b92915050565b600081905092915050565b6000612a3b82612286565b612a458185612a25565b9350612a558185602086016122a2565b80840191505092915050565b6000612a6d8285612a30565b9150612a798284612a30565b91508190509392505050565b7f4e487b7100000000000000000000000000000000000000000000000000000000600052601160045260246000fd5b6000612abf82612252565b91507fffffffffffffffffffffffffffffffffffffffffffffffffffffffffffffffff8203612af157612af0612a85565b5b600182019050919050565b600081519050919050565b600082825260208201905092915050565b6000612b2382612afc565b612b2d8185612b07565b9350612b3d8185602086016122a2565b612b46816122cc565b840191505092915050565b6000608082019050612b6660008301876123c3565b612b7360208301866123c3565b612b80604083018561225c565b8181036060830152612b928184612b18565b905095945050505050565b600081519050612bac816121c3565b92915050565b600060208284031215612bc857612bc761218d565b5b6000612bd684828501612b9d565b91505092915050565b60008190508160005260206000209050919050565b60006020601f8301049050919050565b600082821b905092915050565b600060088302612c417fffffffffffffffffffffffffffffffffffffffffffffffffffffffffffffffff82612c04565b612c4b8683612c04565b95508019841693508086168417925050509392505050565b6000612c7e612c79612c7484612252565b6129cf565b612252565b9050919050565b6000819050919050565b612c9883612c63565b612cac612ca482612c85565b848454612c11565b825550505050565b600090565b612cc1612cb4565b612ccc818484612c8f565b505050565b5b81811015612cf057612ce5600082612cb9565b600181019050612cd2565b5050565b601f821115612d3557612d0681612bdf565b612d0f84612bf4565b81016020851015612d1e578190505b612d32612d2a85612bf4565b830182612cd1565b50505b505050565b600082821c905092915050565b6000612d5860001984600802612d3a565b1980831691505092915050565b6000612d718383612d47565b9150826002028217905092915050565b612d8a82612286565b67ffffffffffffffff811115612da357612da261254f565b5b612dad8254612949565b612db8828285612cf4565b600060209050601f831160018114612deb5760008415612dd9578287015190505b612de38582612d65565b865550612e4b565b601f198416612df986612bdf565b60005b82811015612e2157848901518255600182019150602085019450602081019050612dfc565b86831015612e3e5784890151612e3a601f891682612d47565b8355505b6001600288020188555050505b505050505050565b6000604082019050612e6860008301856123c3565b612e75602083018461225c565b9392505050565b7f4e487b7100000000000000000000000000000000000000000000000000000000600052601260045260246000fdfea2646970667358221220ce1c070341fbb2c1e059a275f06d6bea8bc393aae876c201d7dda5c31ef096ae64736f6c634300081c0033",
  "linkReferences": {},
  "deployedLinkReferences": {}
}